:400000000010002011000000510300005103000008B500F0EBFB00F09DF90000F8B572B680220021D200444800F0C3FF8022002442480021D20000F0BCFF201C404AFF253E
:40004000A75810323E1C111C4300AE433D4001334019D318420001328A18934206D0591E09781D7889190D700233F6E70434102CE4D1C022334B92041A6099220025324B19
:4000800080261A60314B324A1D60324B36061D6099231B041360304A022116602F4A3C27136080222E4B92051A602E4A2E4B2F481A602F4A13780B4313700378BB43283F02
:4000C0003B430370162013782A4F034313708022294B40181A608022284BD2031A604022274B1A60C022274B52031A603122264B1960264B1A608022254BD20219603B6825
:4001000013433B6000F0F8FD3A68224B13403B60214A224B1A602022214B1C60214B1A60214B224A1E60224B1A60224A224B1A60224B1D60F8BDC04600300F4000400F4047
:40014000D00F000004000140100001400C00014000500F400803044004500F4010500F4018500F40100001002001054001700F4000700F4000010B400000044008000440F4
:400180000001044008010440000404400804044018040440FFFFFBFF0600008004010B40080202402002024008010B401000008000000240AF040080400002400C020B4003
:4001C00010B5064C2378002B07D1054B002B02D0044800E000BF0123237010BDF000002000000000CC0F000008B5084B002B03D00748084900E000BF07480368002B00D1A0
:4002000008BD064B002BFBD09847F9E700000000CC0F0000F4000020D00000200000000010B562B600F084FC00280ED16524012000F042FD00F07CFC002806D1013CE4B2AD
:40024000002CF4D14022034B1A6000F063FC00F09FFAFEE7C000002008B500F0F1FA00F025FB00F08DFB08BD70B50D1C161C0024034BC9B21C8000F077FB3580201C70BD58
:400280000C010020F0B50A26171C00245E4387B0039005912D4DB4421ADA00F0F9FA80B228802B88002B0DD002202C8800F004FD00F0EEFA80B228802B88A4B2A342F3D8D6
:4002C000002306E00120013400F0F6FCA4B2E1E70523002401933C802B88002B32D02E883B88B6B2F318059A9BB23B80934220D2A3199BB20293029B9C4209D0631C9BB20B
:400300000493039B1C1900F0A9FA2070049CF2E772B62B889E1BB6B22E8062B6039B029A9B18013B1B78172B0AD0052000F0C4FC06E09E1B3E8000F0B9FA0523019301E0AB
:40034000029CC9E7019807B0F0BDC0460C010020FEE7000070B51049104B01394A1C15D000221E685C689D68A018AA4203D0B058A0500432F8E7021CDC68151AA54202D07D
:40038000002520C2F9E710330139E7E700F0E2FDFFF746FFFEE7C046010000005010000008B500239A000D49032B01D80C4989580C4801338150302BF4D1FFF72FFE0022EA
:4003C000094B1A60094B1A68002A00D11A6080220121D20513680B43136008BD510300000000000000000020C8000020C00000200047000038B5041C013806280BD800F07E
:400400009FFD1611060F04081800164A0BE0164A10E0164A07E0002000F040FC002202E0134A00E0134A5378107800020BE0124A00E0124AD5789178537810780A02000661
:40044000284310431B041843022C04D0032C07D0012C06D104E0030A0002184380B200E000BA38BDD67F0000C97F0000D47F0000D27F0000C57F0000C17F0000D87F00000D
:4004800038B50220FFF7B6FF051C0320FFF7B2FF0135ED012C180220FFF7ACFF00231A1C0130C001A04209D20578691EC9B2FD2900D80122EB18DBB20130F3E705495B423E
:4004C0000978DBB206208B4203D153425A415242104038BDC07F0000F0B5A34CA544FFF7BBFE62B6002701970024962126AE05AD301C49002A1CFF23FFF7C4FE029000280C
:40050000F3D12B88181E062800D829E132780423012A5FD1F578B2782D02154372195179039111798C46E91D814200D91AE19279172A4FD1EB1802989BB2002B09D0BCAA12
:400540008A49D21852181278013B801880B29BB2F3E7039B40421A02634680B21A430823824237D165E0342A00D098E0012F00D0F6E0032D00D0F3E071A800214C3200F0F6
:4005800018FD80248F2171AB181904AB6419EA1EC918A4B200F004FD832C00D0DAE0B479737924021C43019B002B0AD1191C802206A800F0FEFCFF2006A900F0D1FA012394
:4005C0000193201C71A900F0CBFA0127041E00D0C3E00023002104AA012006327370002394463070081D1180B170F37080B2BCAD5E4A2D18AD182D7801385B1980B29BB27C
:400600000028F4D1BCAA5018594A5B428518594A9BB22B7085181B0A2B70574B0731C318172089B218706246301C9623FFF71CFE5BE78C22892104AB9B1804AA5218127830
:400640001B78101C31380A2801D90523C2E700F06DFC0613FC8A2BFC2E408A4E7700012F7ED1002D7CD1FFF70BFF8C214342434104AA5218137060E0012F71D1012D6FD12F
:40068000002B6DD13D4A042112681268F37192B2D2093271120A7271FF22B2719BE7012F5ED1022D5CD96DE7012F59D11CE7012F56D1631902939623029A5B009A4251DCB1
:4006C00071AB181927A92A1C00F06AFC6B461C897FE7002D44D106AB191C294A81CA81C127AA03CB03C201272B1C082173E7012F36D1032D34D1B0797279000210431A0216
:400700008218D201151C0021013A7F3502922A78013D9446029A6144C9B29542F7D1002B08D1FF2806D1174B1B78C91A164B1B78C91AC9B2494226AB1971002301214AE7DA
:40074000FFF79EFE002802D18022104B1A6000F0A7FA05E00127002404E000240A2339E7042337E7032335E70CFDFFFFA7FDFFFFACFDFFFFADFDFFFFAEFDFFFFD400002042
:40078000F40F0000D07F0000D17F0000C0000020144A10B5136818680023011C0139BF2903D00C781B19DBB2F8E752681278D31ADBB2934201D1002802D1002000F06EFA68
:4007C000FFF75EFE084B19681A1C402901D0002803D000231360FFF77FFE80221A6000F05FFA10BDD4000020C000002008B50B4B1A68102313400A4A00D113601368802B80
:400800000BD1002301201360FFF7F4FD002804D00120FFF7EFFDFFF7EBFD08BD00030B40C00000208021054A08B5136809060B4313600A2000F01EFA08BDC0460000064033
:4008400010B5054C2378002B03D100F0BBF801232370FFF7E7FF10BD10010020094B0A491A680B6800209A420AD00B685A1C403B581E83415B421A40044B985C0A60C0B26E
:400880007047C046AC0100202401002068010020044B1868044B1A681B68904200D24130C01A7047AC01002024010020002030B580250B4A0B4B1468106019686D02294368
:4008C00019601D68084929401960084B1968084B1960084B08491870084B1960146030BDC80F064004030640FFFFFEFF24010020AC010020A9010020ED0F0000C00F06407C
:40090000124A10B51368591C3F3B5C1EA3415B4219400F4B1C68A142FBD014681B689C4208D10C4B1C680F232340082B02D00A4B18600AE00224094BC0B21C60084B585403
:400940001160084A13682343136010BD200100201C0100200802064040020640800F064028010020880F064038B5041C4518AC4204D02078FFF7C4FF0134F8E738BD0000BC
:40098000002310B580240A4A640211681360094B1868204318601C68074820401860074B1868074B186002239943116010BDC046880F064004020640FFFFFEFF1C01002069
:4009C0002001002010B51D4A00241D4B07201A6001221C4B1C491C601C4B1A601C4B0B601C4908601C4903300C601C490A601C4A13601C4B1C6000F047F90A20032100F075
:400A00001BF919490A2000F00BF90422174B1C60174B1C60174B1C60174B1C60174B1A60174B1C60174B1C60174B1C60174B1C70174B1C60174B1C6010BDC0460B00000284
:400A400000000640400006400003064048000640070000800403064010030640440006400002064004020640490E0000880E0640C80E0640480F0640080F0640C80F064022
:400A8000880F0640AC01002024010020A9010020200100201C010020842280210D4BD2041A601A6849020A431A601A680A491A60C3220A4B92001A600022094B1A60094BA3
:400AC000094A1360094A1160094A13601C22094B1A6070470001054088130000240105403801054010270000140105400C010540080105402801054008B500F02AF801218A
:400B0000034A13680B43136000F027F808BDC0460000054010B5054C2378002B03D1FFF7BBFF01232370FFF7E7FF10BD18010020024B18680006C00F7047C046040004406D
:400B40000230800804D0C0460138FDD1C046C0467047EFF3108072B6704780F3108870470023F0B5A7B00193FF2846D8994244D0244B254D04AF2F6004937F23041C8022FF
:400B800006A87B60214E00F00BFA214B33603368002BFCDB2B680293A023029A1B069A4201D1002304E0029B1B0F0F2B02D1063B019303E02B681B0F0A2BFBD1019B002B3E
:400BC0001DD1144824042F6004430494FFF7C1FF114B1A680392114A32603268002AFCDB039A1A60FFF7B9FF2B680293A023029A1B069A4203D0029B00E00123019301987A
:400C000027B0F0BDB6D70000080000400400004004000080B6D8000008010B40050000801F2800D901BE034B8000C318186819607047C0464000002038B5041C0D1E032D26
:400C400000D901BE1F2C00D901BEFFF782FFA308074A9B009B180322144094400634A240A5401968914329431960FFF776FF38BD00E400E01F2318401E3B8340181C014B56
:400C80001860704700E100E01F2318401E3B8340181C014B1860704780E100E001BE7047034A044913689BB20B4313607047C0460CED00E00400FA0510B5041C8022074B93
:400CC0001202944205D91868FFF73AFF044BE418F4E758686043FFF733FF10BDDC0000200080FFFF08B5034B1B7A5843FFF728FF08BDC046DC000020F0B5C31E85B0009318
:400D00002D2B77D8061CFFF724FF002303903F223A493B4F585C3C6801912240904201D1033303E001332E2BF1D10233354A1278964204D8344A1578344AEDB21EE0344ABF
:400D40001278964204D8334A1578334AEDB215E0324A1278964204D8314A1578314AEDB20CE0314A1278964204D8304A1578304AEDB203E02F4A15782F4AEDB214782E4A74
:400D8000E4B2B21802922A2B07D92A2E1BD9192305203B60FFF7D4FE01E09E4213D9029B264A1B780520DBB21360254B1D60254B1C60FFF797FF019B009A05209B5C3B6036
:400DC000FFF7BEFE12E0009A019B05209B5C3B60FFF7B6FE029B194A1B780520DBB21360174B1D60174B1C60FFF77CFF0398FFF7B4FE00E001BE05B0F0BDC046FC0F00007D
:400E00002CFF0B40C0F1FF0FC1F1FF0FC2F1FF0FC3F1FF0FC4F1FF0FC5F1FF0FC6F1FF0FC7F1FF0FC8F1FF0FC9F1FF0FCAF1FF0FCBF1FF0FCCF1FF0FCDF1FF0F28FF0B40FD
:400E40001CFF0B4020FF0B40274B10B51B68002B00D09847254B1B685B071DD5244B1B681B0716D0234B2448196803685A1C403B5C1EA3415B421A40204B1B689A4203D123
:400E800020221F4B1A70E9E7CBB21E498B540260E4E704221C4B1A601C4B1B689B0721D51B4B1A680F231340082B18D0194B1A491A680B689A420DD00B685A1C3F3B581EDD
:400EC00083415B421A40154B15489B5CDBB203600A60E5E70221134A13688B4313600222114B1A6010BDC04614010020CC0F06400803064040030640AC0100202401002012
:400F0000A901002068010020C00F06408C0F064008020640200100201C0100202801002040020640880F0640800F064002B4714649084900095649008E4402BC7047C0461B
:400F400002B4714649084900095C49008E4402BC7047C0460E4B70B500251E1C0D4CE41AA410A54204D0AB00F35898470135F8E700F05CF8084B00251E1C084CE41AA410E6
:400F8000A54204D0AB00F35898470135F8E770BD38100000381000003810000040100000002310B5934203D0CC5CC4540133F9E710BD031C8218934202D019700133FAE788
:400FC00070470000801000006E0000000000000001330F4003410F4004430F4002600F40E61062048E04D84018808C40C608E608020111019311C8041114010103040506FB
:401000000708090A0B0C0E0F101112131415161718191B1C1D1E1F2021222325262728292A2B2E2F3031323334350000F8B5C046F8BC08BC9E467047E9010000A10300007E
:40104000F8B5C046F8BC08BC9E467047C101000060100000D000002020000000C000000000000000C40F0000C80F00000000E02EC05D00001800000000366E010000000016
:401080000000000000000000000000000000000000000000000000000000000000000000000000000000000000000000000000000000000000000000000000000000000030
:4010C00000000000000000000000000000000000000000000000000000000000000000000000000000000000000000000000000000000000000000000000000000000000F0
:4011000000000000000000000000000000000000000000000000000000000000000000000000000000000000000000000000000000000000000000000000000000000000AF
:40114000000000000000000000000000000000000000000000000000000000000000000000000000000000000000000000000000000000000000000000000000000000006F
:407FC000000000000000000000000000000000000000010001000000000000000000000000000000000000000000000000000000000000000000000000000000000000007F
:0200000490303A
:0200000049298C
:0200000490402A
:20000000FFFF030000000000000000000000000000000000000000000000000000000000DF
:0200000490501A
:0C000000000204C81193110004CD5ABC8A
:0200000490600A
:0100000001FE
:00000001FF