:400000000010002011000000510300005103000008B500F0EBFB00F09DF90000F8B572B680220021D200444800F0C3FF8022002442480021D20000F0BCFF201C404AFF253E
:40004000A75810323E1C111C4300AE433D4001334019D318420001328A18934206D0591E09781D7889190D700233F6E70434102CE4D1C022334B92041A6099220025324B19
:4000800080261A60314B324A1D60324B36061D6099231B041360304A022116602F4A3C27136080222E4B92051A602E4A2E4B2F481A602F4A13780B4313700378BB43283F02
:4000C0003B430370162013782A4F034313708022294B40181A608022284BD2031A604022274B1A60C022274B52031A603122264B1960264B1A608022254BD20219603B6825
:4001000013433B6000F0F8FD3A68224B13403B60214A224B1A602022214B1C60214B1A60214B224A1E60224B1A60224A224B1A60224B1D60F8BDC04600300F4000400F4047
:40014000D00F000004000140100001400C00014000500F400803044004500F4010500F4018500F40100001002001054001700F4000700F4000010B400000044008000440F4
:400180000001044008010440000404400804044018040440FFFFFBFF0600008004010B40080202402002024008010B401000008000000240AF040080400002400C020B4003
:4001C00010B5064C2378002B07D1054B002B02D0044800E000BF0123237010BDF000002000000000CC0F000008B5084B002B03D00748084900E000BF07480368002B00D1A0
:4002000008BD064B002BFBD09847F9E700000000CC0F0000F4000020D00000200000000010B562B600F084FC00280ED16524012000F042FD00F07CFC002806D1013CE4B2AD
:40024000002CF4D14022034B1A6000F063FC00F09FFAFEE7C000002008B500F0F1FA00F025FB00F08DFB08BD70B50D1C161C0024034BC9B21C8000F077FB3580201C70BD58
:400280000C010020F0B50A26171C00245E4387B0039005912D4DB4421ADA00F0F9FA80B228802B88002B0DD002202C8800F004FD00F0EEFA80B228802B88A4B2A342F3D8D6
:4002C000002306E00120013400F0F6FCA4B2E1E70523002401933C802B88002B32D02E883B88B6B2F318059A9BB23B80934220D2A3199BB20293029B9C4209D0631C9BB20B
:400300000493039B1C1900F0A9FA2070049CF2E772B62B889E1BB6B22E8062B6039B029A9B18013B1B78172B0AD0052000F0C4FC06E09E1B3E8000F0B9FA0523019301E0AB
:40034000029CC9E7019807B0F0BDC0460C010020FEE7000070B51049104B01394A1C15D000221E685C689D68A018AA4203D0B058A0500432F8E7021CDC68151AA54202D07D
:40038000002520C2F9E710330139E7E700F0E2FDFFF746FFFEE7C046010000005010000008B500239A000D49032B01D80C4989580C4801338150302BF4D1FFF72FFE0022EA
:4003C000094B1A60094B1A68002A00D11A6080220121D20513680B43136008BD510300000000000000000020C8000020C00000200047000038B5041C013806280BD800F07E
:400400009FFD1611060F04081800164A0BE0164A10E0164A07E0002000F040FC002202E0134A00E0134A5378107800020BE0124A00E0124AD5789178537810780A02000661
:40044000284310431B041843022C04D0032C07D0012C06D104E0030A0002184380B200E000BA38BDD67F0000C97F0000D47F0000D27F0000C57F0000C17F0000D87F00000D
:4004800038B50220FFF7B6FF051C0320FFF7B2FF0135ED012C180220FFF7ACFF00231A1C0130C001A04209D20578691EC9B2FD2900D80122EB18DBB20130F3E705495B423E
:4004C0000978DBB206208B4203D153425A415242104038BDC07F0000F0B5A34CA544FFF7BBFE62B6002701970024962126AE05AD301C49002A1CFF23FFF7C4FE029000280C
:40050000F3D12B88181E062800D829E132780423012A5FD1F578B2782D02154372195179039111798C46E91D814200D91AE19279172A4FD1EB1802989BB2002B09D0BCAA12
:400540008A49D21852181278013B801880B29BB2F3E7039B40421A02634680B21A430823824237D165E0342A00D098E0012F00D0F6E0032D00D0F3E071A800214C3200F0F6
:4005800018FD80248F2171AB181904AB6419EA1EC918A4B200F004FD832C00D0DAE0B479737924021C43019B002B0AD1191C802206A800F0FEFCFF2006A900F0D1FA012394
:4005C0000193201C71A900F0CBFA0127041E00D0C3E00023002104AA012006327370002394463070081D1180B170F37080B2BCAD5E4A2D18AD182D7801385B1980B29BB27C
:400600000028F4D1BCAA5018594A5B428518594A9BB22B7085181B0A2B70574B0731C318172089B218706246301C9623FFF71CFE5BE78C22892104AB9B1804AA5218127830
:400640001B78101C31380A2801D90523C2E700F06DFC0613FC8A2BFC2E408A4E7700012F7ED1002D7CD1FFF70BFF8C214342434104AA5218137060E0012F71D1012D6FD12F
:40068000002B6DD13D4A042112681268F37192B2D2093271120A7271FF22B2719BE7012F5ED1022D5CD96DE7012F59D11CE7012F56D1631902939623029A5B009A4251DCB1
:4006C00071AB181927A92A1C00F06AFC6B461C897FE7002D44D106AB191C294A81CA81C127AA03CB03C201272B1C082173E7012F36D1032D34D1B0797279000210431A0216
:400700008218D201151C0021013A7F3502922A78013D9446029A6144C9B29542F7D1002B08D1FF2806D1174B1B78C91A164B1B78C91AC9B2494226AB1971002301214AE7DA
:40074000FFF79EFE002802D18022104B1A6000F0A7FA05E00127002404E000240A2339E7042337E7032335E70CFDFFFFA7FDFFFFACFDFFFFADFDFFFFAEFDFFFFD400002042
:40078000F40F0000D07F0000D17F0000C0000020144A10B5136818680023011C0139BF2903D00C781B19DBB2F8E752681278D31ADBB2934201D1002802D1002000F06EFA68
:4007C000FFF75EFE084B19681A1C402901D0002803D000231360FFF77FFE80221A6000F05FFA10BDD4000020C000002008B50B4B1A68102313400A4A00D113601368802B80
:400800000BD1002301201360FFF7F4FD002804D00120FFF7EFFDFFF7EBFD08BD00030B40C00000208021054A08B5136809060B4313600A2000F01EFA08BDC0460000064033
:4008400010B5054C2378002B03D100F0BBF801232370FFF7E7FF10BD10010020094B0A491A680B6800209A420AD00B685A1C403B581E83415B421A40044B985C0A60C0B26E
:400880007047C046AC0100202401002068010020044B1868044B1A681B68904200D24130C01A7047AC01002024010020002030B580250B4A0B4B1468106019686D02294368
:4008C00019601D68084929401960084B1968084B1960084B08491870084B1960146030BDC80F064004030640FFFFFEFF24010020AC010020A9010020ED0F0000C00F06407C
:40090000124A10B51368591C3F3B5C1EA3415B4219400F4B1C68A142FBD014681B689C4208D10C4B1C680F232340082B02D00A4B18600AE00224094BC0B21C60084B585403
:400940001160084A13682343136010BD200100201C0100200802064040020640800F064028010020880F064038B5041C4518AC4204D02078FFF7C4FF0134F8E738BD0000BC
:40098000002310B580240A4A640211681360094B1868204318601C68074820401860074B1868074B186002239943116010BDC046880F064004020640FFFFFEFF1C01002069
:4009C0002001002010B51D4A00241D4B07201A6001221C4B1C491C601C4B1A601C4B0B601C4908601C4903300C601C490A601C4A13601C4B1C6000F047F90A20032100F075
:400A00001BF919490A2000F00BF90422174B1C60174B1C60174B1C60174B1C60174B1A60174B1C60174B1C60174B1C60174B1C70174B1C60174B1C6010BDC0460B00000284
:400A400000000640400006400003064048000640070000800403064010030640440006400002064004020640490E0000880E0640C80E0640480F0640080F0640C80F064022
:400A8000880F0640AC01002024010020A9010020200100201C010020842280210D4BD2041A601A6849020A431A601A680A491A60C3220A4B92001A600022094B1A60094BA3
:400AC000094A1360094A1160094A13601C22094B1A6070470001054088130000240105403801054010270000140105400C010540080105402801054008B500F02AF801218A
:400B0000034A13680B43136000F027F808BDC0460000054010B5054C2378002B03D1FFF7BBFF01232370FFF7E7FF10BD18010020024B18680006C00F7047C046040004406D
:400B40000230800804D0C0460138FDD1C046C0467047EFF3108072B6704780F3108870470023F0B5A7B00193FF2846D8994244D0244B254D04AF2F6004937F23041C8022FF
:400B800006A87B60214E00F00BFA214B33603368002BFCDB2B680293A023029A1B069A4201D1002304E0029B1B0F0F2B02D1063B019303E02B681B0F0A2BFBD1019B002B3E
:400BC0001DD1144824042F6004430494FFF7C1FF114B1A680392114A32603268002AFCDB039A1A60FFF7B9FF2B680293A023029A1B069A4203D0029B00E00123019301987A
:400C000027B0F0BDB6D70000080000400400004004000080B6D8000008010B40050000801F2800D901BE034B8000C318186819607047C0464000002038B5041C0D1E032D26
:400C400000D901BE1F2C00D901BEFFF782FFA308074A9B009B180322144094400634A240A5401968914329431960FFF776FF38BD00E400E01F2318401E3B8340181C014B56
:400C80001860704700E100E01F2318401E3B8340181C014B1860704780E100E001BE7047034A044913689BB20B4313607047C0460CED00E00400FA0510B5041C8022074B93
:400CC0001202944205D91868FFF73AFF044BE418F4E758686043FFF733FF10BDDC0000200080FFFF08B5034B1B7A5843FFF728FF08BDC046DC000020F0B5C31E85B0009318
:400D00002D2B77D8061CFFF724FF002303903F223A493B4F585C3C6801912240904201D1033303E001332E2BF1D10233354A1278964204D8344A1578344AEDB21EE0344ABF
:400D40001278964204D8334A1578334AEDB215E0324A1278964204D8314A1578314AEDB20CE0314A1278964204D8304A1578304AEDB203E02F4A15782F4AEDB214782E4A74
:400D8000E4B2B21802922A2B07D92A2E1BD9192305203B60FFF7D4FE01E09E4213D9029B264A1B780520DBB21360254B1D60254B1C60FFF797FF019B009A05209B5C3B6036
:400DC000FFF7BEFE12E0009A019B05209B5C3B60FFF7B6FE029B194A1B780520DBB21360174B1D60174B1C60FFF77CFF0398FFF7B4FE00E001BE05B0F0BDC046FC0F00007D
:400E00002CFF0B40C0F1FF0FC1F1FF0FC2F1FF0FC3F1FF0FC4F1FF0FC5F1FF0FC6F1FF0FC7F1FF0FC8F1FF0FC9F1FF0FCAF1FF0FCBF1FF0FCCF1FF0FCDF1FF0F28FF0B40FD
:400E40001CFF0B4020FF0B40274B10B51B68002B00D09847254B1B685B071DD5244B1B681B0716D0234B2448196803685A1C403B5C1EA3415B421A40204B1B689A4203D123
:400E800020221F4B1A70E9E7CBB21E498B540260E4E704221C4B1A601C4B1B689B0721D51B4B1A680F231340082B18D0194B1A491A680B689A420DD00B685A1C3F3B581EDD
:400EC00083415B421A40154B15489B5CDBB203600A60E5E70221134A13688B4313600222114B1A6010BDC04614010020CC0F06400803064040030640AC0100202401002012
:400F0000A901002068010020C00F06408C0F064008020640200100201C0100202801002040020640880F0640800F064002B4714649084900095649008E4402BC7047C0461B
:400F400002B4714649084900095C49008E4402BC7047C0460E4B70B500251E1C0D4CE41AA410A54204D0AB00F35898470135F8E700F05CF8084B00251E1C084CE41AA410E6
:400F8000A54204D0AB00F35898470135F8E770BD38100000381000003810000040100000002310B5934203D0CC5CC4540133F9E710BD031C8218934202D019700133FAE788
:400FC00070470000801000006E0000000000000001330F4003410F4004430F4002600F40E61062048E04D84018808C40C608E608020111019311C8041114010103040506FB
:401000000708090A0B0C0E0F101112131415161718191B1C1D1E1F2021222325262728292A2B2E2F3031323334350000F8B5C046F8BC08BC9E467047E9010000A10300007E
:40104000F8B5C046F8BC08BC9E467047C101000060100000D000002020000000C000000000000000C40F0000C80F00000000E02EC05D00001800000000366E010000000016
:401080000010002091100000C1500000C150000080B500AF024B83F3088804F015F8C0460010002080B500AF244B244A12688021C9020A431A60182004F07EFF1F4B1F4AE5
:4010C00012681F490A401A601E4B1F4A1A601F4B21221A601E4B31221A601E4B20221A601D4B10221A601D4B11221A601C4B30221A601C4B12221A601B4B822212061A606F
:401100000E4B00221A60194B194A1A60194B1A4A1A601A4B802212061A60194B194A1A60194B1A4A1A601A4B1A4A1A601A4B1B4A1A601B4B00221A60BD4680BD00010B4006
:40114000FFFFFBFF04010B4006000080080202400C02024014020240180202401C020240200202402402024008010B4000000240FE00008040000240FE0000C0800002400F
:401180000400024002000080440002400C000080840002400E00008008000240170000800C020B4080B582B000AF72B6FB1D00221A7023E0FB1D1A78131C5B009B185B0080
:4011C000504A9B183B603B681A78597809020A43997809040A43DB781B061343191C3B681A795B791B0213439BB2081C191C03F0EFFFFB1D1A78FB1D01321A70FB1D1B7811
:40120000012BD7D9404A414B101C191C03F0F0FF3F4BEE2212041A603E4B3F4A1A603F4B3F4A1A603F4B99221A603F4B992212041A603E4B3E4A1A603E4BA02212051A603B
:401240003D4B3B4A1A603D4BA02212051A603C4BB12212041A603B4B992212041A603A4B802252021A60394B394A1A60394A394B1B78DBB202210B43DBB21370364A364B32
:401280001B78DBB23C218B43DBB214210B43DBB21370304A2F4B1B78DBB216210B43DBB213702E4BB0221A602D4B2E4A1A602E4B07221A602D4B2E4A1A602E4B87221A60C9
:4012C0002D4BCF221A602D4B2D4A1A602D4BC0221A602D4B03221A602C4B2D4A1A602D4B02221A602C4B06221A602C4B31221A602B4B06221A60FFF7D5FE03F0B9FFBD464D
:4013000002B080BD7873000084730000A87300000000014008000140333300000C00014003EE00001000014000500F4010500F400400990014500F4020500F4024500F4022
:4013400028500F4030500F4038500F4020010540F0000E0000700F4001700F40000004400800044000404200000104400801044000901800180104400002044008020440E0
:40138000B69D0000180204400003044008030440860D00001803044000040440080404401804044010B5064C2378002B07D1054B002B02D0044800E000BF0123237010BD8B
:4013C0000001002000000000086B000008B5084B002B03D00748084900E000BF07480368002B00D108BD064B002BFBD09847F9E700000000086B000004010020D000002003
:401400000000000080B582B000AF78607B6800221A607B6800225A607B68181CBD4602B080BDC04680B582B000AF78607B68034A1A607B68181CBD4602B080BDD86C00008C
:4014400080B582B000AF78607B68181CFFF7EAFF7B68064A1A607B680433181CFFF7D2FF7B68181CBD4602B080BDC046C06C000080B584B000AF786039600023FB60FB6821
:401480003A68D2187B685B68DBB21370FB6801333A68D2187B685B681B0ADBB21370FB6802333A68D2187B685B681B0CDBB21370FB6803333A68D2187B685B681B0EDBB26A
:4014C0001370FB680433FB60FB683A68D2187B689B68DBB21370FB6801333A68D2187B689B681B0ADBB21370FB6802333A68D2187B689B681B0CDBB21370FB6803333A68D5
:40150000D2187B689B681B0EDBB21370FB680433FB60FB68181CBD4604B080BD80B584B000AF786039600023FB60FB683A68D3181B781A1C7B685A607B685A68FB68013389
:401540003968CB181B781B021A437B685A607B685A68FB6802333968CB181B781B041A437B685A607B685A68FB6803333968CB181B781B061A437B685A60FB680433FB606B
:40158000FB683A68D3181B781A1C7B689A607B689A68FB6801333968CB181B781B021A437B689A607B689A68FB6802333968CB181B781B041A437B689A607B689A68FB6876
:4015C00003333968CB181B781B061A437B689A60FB680433FB60FB68181CBD4604B080BD80B582B000AF7860024B181CBD4602B080BDC046106B000080B582B000AF7860F3
:40160000024B181CBD4602B080BDC046206B000080B582B000AF78607B68181CFFF702FF7B680B4A1A607B6800229A807B68094A9A607B68074ADA607B68064A1A617B68AA
:4016400000225A617B68181CBD4602B080BDC046A86C0000446B000080B588B000AF786039600023FB61FB693A68D3187A689288D2B21A70FB6901333A68D3187A68928893
:40168000120A92B2D2B21A70FB690233FB617B689B68181C05F031FA031CBB61FB693A68D2181823FB18101C191C042205F014FAFB690433FB61FB693A68D1187B689A68BF
:4016C000BB69081C111C1A1C05F006FAFA69BB69D318FB617B68DB68181C05F00EFA031C7B61FB693A68D2181423FB18101C191C042205F0F1F9FB690433FB61FB693A688D
:40170000D1187B68DA687B69081C111C1A1C05F0E3F9FA697B69D318FB617B681B69181C05F0EBF9031C3B61FB693A68D2181023FB18101C191C042205F0CEF9FB6904338E
:40174000FB61FB693A68D1187B681A693B69081C111C1A1C05F0C0F9FA693B69D318FB617B685B69FB60FB693A68D318FA68D2B21A70FB6901333A68D318FA68120AD2B207
:401780001A70FB6902333A68D318FA68120CD2B21A70FB6903333A68D318FA68120ED2B21A70FB690433FB61FB69181CBD4608B080BDC04680B58AB000AF786039600023F5
:4017C000BB61BB693A68D3181B789AB27B689A807B689B8899B2BB6901333A68D3181B781B029BB20A1C13439BB29AB27B689A80BB690233BB61BB693A68D3181422BA18CD
:40180000101C191C042205F067F9BB690433BB61BB697B620BE07B6A013B3A68D31839687A6A8A1812781A707B6A01337B62BA697B69D2187B6A9A42EDD8BA697B69D31821
:40184000013B3A68D31800221A70BB69013B3A68D2187B689A60BA697B69D318BB61BB693A68D3181022BA18101C191C042205F033F9BB690433BB61BB693B620BE03B6AF7
:40188000013B3A68D31839683A6A8A1812781A703B6A01333B62BA693B69D2183B6A9A42EDD8BA693B69D318013B3A68D31800221A70BB69013B3A68D2187B68DA60BA69A4
:4018C0003B69D318BB61BB693A68D3180C22BA18101C191C042205F0FFF8BB690433BB61BB69FB610BE0FB69013B3A68D3183968FA698A1812781A70FB690133FB61BA6939
:40190000FB68D218FB699A42EDD8BA69FB68D318013B3A68D31800221A70BB69013B3A68D2187B681A61BA69FB68D318BB610023BB60BB68BA6939688A1812781343BB60D6
:40194000BA68BB6901333968CB181B781B021343BB60BA68BB6902333968CB181B781B041343BB60BA68BB6903333968CB181B781B061343BB60BA687B685A61BB690433E6
:40198000BB61BB69181CBD460AB080BD80B582B000AF7860024B181CBD4602B080BDC046486B000080B582B000AF7860024B181CBD4602B080BDC046646B000080B582B002
:4019C00000AF78607B68181CFFF72CFD7B68064A1A607B6800221A717B68044A9A607B68181CBD4602B080BD906C0000446B000080B584B000AF786039600023FB60FB68A4
:401A00003A68D3187A6812791A70FB680133FB607B689B68181C05F070F8031CBB60FB683A68D2180823FB18101C191C042205F053F8FB680433FB60FB683A68D1187B68C5
:401A40009A68BB68081C111C1A1C05F045F8FA68BB68D318FB60FB68181CBD4604B080BD80B586B000AF7860396000233B613B693A68D3181A787B681A713B6901333B6143
:401A80003B693A68D3180C22BA18101C191C042205F022F83B6904333B613B697B610BE07B69013B3A68D31839687A698A1812781A707B6901337B613A69FB68D2187B69CE
:401AC0009A42EDD83A69FB68D318013B3A68D31800221A703B69013B3A68D2187B689A603A69FB68D3183B613B69181CBD4606B080BDC04680B582B000AF7860024B181CC6
:401B0000BD4602B080BDC046886B000080B582B000AF7860024B181CBD4602B080BDC0469C6B000080B582B000AF78607B68181CFFF778FC7B680C4A1A607B6800221A719A
:401B40007B680022DA607B6800221A747B6800229A617B6800221A777B6800225A627B68181CBD4602B080BD786C000080B588B000AF786039600023FB61FB695A1CFA610E
:401B80001A1C3B689B187A6812791A70FB695A1CFA611A1C3B689B1800221A70FB695A1CFA611A1C3B689B1800221A70FB695A1CFA611A1C3B689B1800221A701B23FB180A
:401BC00000221A7030E07B68DA681B23FB181B789B00D3181B687B61FB693A68D3187A69D2B21A70FB6901333A68D3187A69120AD2B21A70FB6902333A68D3187A69120C00
:401C0000D2B21A70FB6903333A68D3187A69120ED2B21A70FB690433FB611B23FB181A781B23FB1801321A707B681B791B22BA1812789A42C7D3FB695A1CFA611A1C3B68E2
:401C40009B187A68127C1A70FB695A1CFA611A1C3B689B1800221A70FB695A1CFA611A1C3B689B1800221A70FB695A1CFA611A1C3B689B1800221A701A23FB1800221A7074
:401C800030E07B689A691A23FB181B789B00D3181B683B61FB693A68D3183A69D2B21A70FB6901333A68D3183A69120AD2B21A70FB6902333A68D3183A69120CD2B21A701D
:401CC000FB6903333A68D3183A69120ED2B21A70FB690433FB611A23FB181A781A23FB1801321A707B681B7C1A22BA1812789A42C7D3FB695A1CFA611A1C3B689B187A68DB
:401D0000127F1A70FB695A1CFA611A1C3B689B1800221A70FB695A1CFA611A1C3B689B1800221A70FB695A1CFA611A1C3B689B1800221A701923FB1800221A7035E07B684E
:401D40005A6A1923FB181B789B00D3181B68181C04F0D3FE031CFB60FB693A68D2180C23FB18101C191C042204F0B6FEFB690433FB61FB693A68D1187B685A6A1923FB1804
:401D80001B789B00D3181A68FB68081C111C1A1C04F0A2FEFA69FB68D318FB611923FB181A781923FB1801321A707B681B7F1922BA1812789A42C2D3FB69181CBD4608B038
:401DC00080BDC04680B58AB000AF7860396000237B627B6A5A1C7A621A1C3B689A181B23FB1812781A707B681B791B22BA1812789A4204D27B681B22BA1812781A717B6A3C
:401E000003337B622323FB1800221A7045E000237B617B697A6A39688A18127813437B617A697B6A01333968CB181B781B0213437B617A697B6A02333968CB181B781B040A
:401E400013437B617A697B6A03333968CB181B781B0613437B617A697B689A607B6A04337B627B681B792322BA1812789A420DD27B68DA682323FB181B789B00D2187B68C3
:401E80000833101C191C042204F026FE2323FB181A782323FB1801321A702323FA181B23FB1812781B789A42B1D37B6A5A1C7A621A1C3B689A181A23FB1812781A707B6818
:401EC0001B7C1A22BA1812789A4204D27B681A22BA1812781A747B6A03337B622223FB1800221A7045E000233B613B697A6A39688A18127813433B613A697B6A0133396874
:401F0000CB181B781B0213433B613A697B6A02333968CB181B781B0413433B613A697B6A03333968CB181B781B0613433B613A697B685A617B6A04337B627B681B7C222257
:401F4000BA1812789A420DD27B689A692223FB181B789B00D2187B681433101C191C042204F0BAFD2223FB181A782223FB1801321A702223FA181A23FB1812781B789A42F9
:401F8000B1D37B6A5A1C7A621A1C3B689A181923FB1812781A707B681B7F1922BA1812789A4204D27B681922BA1812781A777B6A03337B622123FB1800221A704FE07B6A98
:401FC0003A68D3180C22BA18101C191C042204F083FD7B6A04337B627B6AFB610BE0FB69013B3A68D3183968FA698A1812781A70FB690133FB617A6AFB68D218FB699A42E8
:40200000EDD87A6AFB68D318013B3A68D31800221A707B6A013B3A68D2187B681A627A6AFB68D3187B627B681B7F2122BA1812789A420DD27B685A6A2123FB181B789B0016
:40204000D2187B682033101C191C042204F044FD2123FB181A782123FB1801321A702123FA181923FB1812781B789A42A7D37B6A181CBD460AB080BD80B582B000AF78606E
:40208000024B181CBD4602B080BDC046206C000080B582B000AF7860024B181CBD4602B080BDC046C06B000080B582B000AF78607B681B69181CBD4602B080BD80B500AF2A
:4020C000024B1B68181CBD4680BDC0469003002080B582B000AF78607B68054A1A607B68E12212025A607B68181CBD4602B080BD8C03002080B582B000AF78607B681B6889
:402100001B681A687B6819687B685B68081C191C9047BD4602B080BD80B582B000AF78607B681B681B6804331A687B681B68181C9047031C181CBD4602B080BD80B586B0BD
:4021400000AFF860B9607A6000237B610FE0FB681B681B6808331A68FB6818687B69B968CB181B78191C90477B6901337B617A697B689A42EBDBBD4606B080BD80B582B02E
:4021800000AF7860FFF79AFF031C181CBD4602B080BDC04680B500AF00F0B2FE144B181C00F0B6F800F03CFF01F000F901F004FA01F058FB01F062FE01F050FD01F084FFBE
:4021C00002F00CFC00F044FF01F006F901F00CFA01F058FB01F06AFE01F0BAFD01F094FF02F05EFC024B181C00F0B2F8EAE7C0461C01002080B582B000AF78607B68034A69
:402200001A607B68181CBD4602B080BD606C000080B586B000AF78607B68181CFFF7EAFF7B683A4A1A607B680433181CFFF750FF7A688D239B000021D1547B689222920057
:4022400094466344181CFFF76DFC00237B6108E07B687A696A3292000021D1507B6901337B617B69132BF3D900233B6108E07B683A697E3292000021D1503B6901333B6126
:402280003B69092BF3D90023FB6008E07A68FB68D318183300221A70FB680133FB60FB68C72BF3D90023BB6009E07A68E021BB68D3185B1800221A70BB680133BB60BB680E
:4022C000C72BF2D97A6893239B000021D1547A6895239B000021D1507A6896239B000021D1547A6898239B000021D1507A6893239B000021D1547A6895239B000021D1504B
:402300007B68181CBD4606B080BDC046486C000080B582B000AF78607B680433181CFFF7E9FE7A6888239B000021D1507A6889239B000021D1507A688B239B000021D1507B
:402340007A688A239B000021D150BD4602B080BD80B584B000AF78607B680433181CFFF70DFF031CFB607A688F239B00D358FA68D31AD74A934204D97A688D239B0000217B
:40238000D1547A6888239B00D358002B0BD07A6890239B00D258FB689A4204D27A6888239B000021D1507B680433181CFFF7B4FE031CBB60BB68002B08DAC0467A688D23CE
:4023C0009B00D35C002B00D1CFE1BBE17A688C239B00D258BB68D1187A688C239B00D1507A6888239B00D358072B24D17A688B239B00D358581C79688B2292008850BA68BE
:40240000D1B27A68D3180A1C1A767A6889239B00D358591E7A6889239B00D1507A6889239B00D358002B00D08BE17A6888239B000821D15085E17A6888239B00D358002B70
:402440002BD1BB68FF2B10D17A6888239B00D358591C7A6888239B00D150FB68C833191C7A6890239B00D1506BE17B680433181CFFF784FE021CFB68D31A02229A429B41E1
:402480005B42DBB2002B00D15BE17A688D239B000021D15402235B4268E17A6888239B00D358012B20D1BB68FE2B09D17A6888239B00D358591C7A6888239B00D15040E174
:4024C0007A6888239B000021D1507A688D239B00D35C01225340DBB2002B00D131E17B68181C00F047F92CE17A6888239B00D358022B18D17A6889239B00B968D1507A68BB
:402500008B239B000021D1507A6888239B00D358591C7A6888239B00D1507A688C239B00B968D1500DE17A6888239B00D358032B14D17A6889239B00D258BB681B02D118C1
:402540007A6889239B00D1507A6888239B00D358591C7A6888239B00D150F2E07A6888239B00D358042B1CD17A688C239B00D358584A134003D5013B574A13430133FF2B0A
:4025800009D17A6888239B00D358591C7A6888239B00D150D5E07A6888239B000021D15001E77A6888239B00D358052B13D17A688A239B00B968D1507A6888239B00D35803
:4025C000591C7A6888239B00D1507A688C239B00B968D150B5E07A6888239B00D358062B1CD17A688A239B00D258BB681B02D1187A688A239B00D1507A6888239B00072191
:40260000D1507A6889239B00D358002B00D098E07A6888239B000821D15092E07A6888239B00D358082B00D08BE07A6888239B000021D1507A688C239B00D358254A13408A
:4026400003D5013B244A13430133FF2B00D078E07A688A239B00D358002B14D17B68181C00F088F87B68181C00F0A2F87A688E239B00F968D1507A688F239B00F968D1500E
:4026800001235B4272E07A688A239B00D3580A2B07D17B6818337A68101C191C00F062F94FE07A688A239B00D358062B16D17B68922292009A187B681833101C191CFFF7ED
:4026C00081FB7A6891239B000121D15439E0C04698080000FF00008000FFFFFF7A688A239B00D3580B2B05D17A688D239B000021D15426E07A688A239B00D358643B1A1CA7
:402700007B687E329200D358002B1AD07A688A239B00D358643B1A1C7B687E329200D3581B681B6879688A2292008A58643A111C7A687E31890089587A681832081C111C70
:40274000984730E67A688E239B00D358FA68D21AFA239B009A4208D97B68181C00F00AF87A688E239B00F968D1500023181CBD4604B080BD80B586B000AF78600C23FB1810
:40278000181CFEF75DFE7B681B681B6879680C22BA18081C0A2198477B680433181CFFF7EDFC021C7B68DA60BD4606B080BDC04690B58BB000AF78600C23FB18181CFEF7C7
:4027C00027FF00237B625CE07B687A6A6A329200D358002B52D07B687A6A6A329200D3589B689AB20C23FB189A807B687A6A6A329200D3581A680C23FB189A607B687A6A9A
:402800006A329200D3585B681B6808331A687B68796A6A318900CB585B68181C9047021C0C23FB18DA607B687A6A6A329200D3585B681B680C331A687B68796A6A318900B6
:40284000CB585B68181C9047021C0C23FB181A610C23FB18C8225A617B681B681C687B687A6A6A329200D358181CFFF71DFC011C7A680C23FB18101C1A1CA0477B6A0133B5
:402880007B627B6A132B9FDD00237B625FE07B687A6A7E329200D358002B55D07B687A6A7E329200D3585B689AB20C23FB189A807B687A6A7E329200D3589A680C23FB18C2
:4028C0009A607B687A6A7E329200D3581B6808331B687A68796A7E3189008A58101C9847021C0C23FB18DA607B687A6A7E329200D3581B680C331B687A68796A7E3189006F
:402900008A58101C9847021C0C23FB181A610C23FB18C8225A617B681B681C687B687A6A7E329200D3581B6804331B687A68796A7E3189008A58101C9847011C7A680C2375
:40294000FB18101C1A1CA0477B6A01337B627B6A092B9CDD7A688D239B000121D154BD460BB090BD90B587B000AF786039600823FB18181CFEF764FD7B680433181CFFF74C
:40298000FDFB021C7B68DB68D31A7B610823FA183B68101C191CFEF7C1FD0823FB185C687B69181CFA23990003F0DEFF031CE2180823FB185A600823FB189C687B69181C13
:4029C000FA23990004F056F80B1C1A1C0D4B5343E2180823FB189A607A680823FB180433101C191C00F0AAF87B680433181CFFF7C5FB011C7A688F239B00D150BD4607B0ED
:402A000090BDC04640420F0080B588B000AFF860B9607A60BB68632B0ADDFA688D239B00D35C01225340DBB2002B01D000237BE07B681B681B68FA68E7327968081C111C84
:402A40009847031C7B61FB68E022FF219954FB68E122FE2199547B69D9B2FB68E22299547B691B0AD9B2FB68E3229954FB68E2229A5CFB68E3215B5CD318DBB2DB43D9B250
:402A8000FB68E4229954BB68D9B2FB68E5229954BB681B12D9B2FB68E62299540023FB610523BB610CE0FA68E021BB69D3185B181B781A1CFB699B18FB61BB690133BB6144
:402AC000BA697B6907339A42EDD37B6907337B617A69531C7B61FB6915490B4003D5013B14490B430133DBB2DB43D8B2FB68E0219B185B18021C1A707B69C82B0CD8FB684C
:402B0000191DFB68E0331A1C7B69081C111C1A1CFFF714FB7B6907E0FA68074B101C191C00F046F801235B42181CBD4608B080BDFF00008000FFFFFFE46B000090B585B003
:402B400000AF786039607B680433181CFFF716FB031CFB603B681C68FB68181CFA23990003F002FF031CE31A5A1E7B681A613B685C68FB68181CFA23990003F07BFF0B1CC4
:402B80001A1C094B5343E31A084A9A187B685A617B6810331A1C7B681433101C191C00F0C9F9BD4605B090BD40420F0000CA9A3B80B582B000AF786039607A683B68101C50
:402BC00003211A1C00F004F8BD4602B080BDC04680B588B000AFF8607A600B23FB180A1C1A701423FB18181CFEF7E8FE1423FB180B22BA1812781A711423FB187A689A607B
:402C0000FB681B681B68F9681422BA18081C07219847BD4608B080BD80B582B000AF786039607B68012B07D13B68054A934203D1044B181CFFF7ECFABD4602B080BDC0463F
:402C4000FFFF00001C01002080B582B000AF78607A688D239B00D35C181CBD4602B080BD80B500AF034B0120191CFFF7D5FFBD4680BDC046FFFF000080B584B000AF786023
:402C800039603B681B01FB60FB685B080B4A94466344181CF96803F067FE031C1A1C0A23FB181A800A23FB181B88181C002102F01FFB02F04FFBBD4604B080BD00366E0190
:402CC00080B584B000AF786001235B42FB6002F083FB031C5A1E9341DBB2002B03D002F053FB031CFB60094B1A68D8239B0013405A1E9341DBB2002B03D0044BD822920037
:402D00001A60FB68181CBD4604B080BDC00F064080B582B000AF78600A1CFB1C1A70FB1C1B78181C02F078FB0123181CBD4602B080BDC04680B582B000AF78607B68034A13
:402D40001A607B68181CBD4602B080BD206D000080B582B000AF78607B68181CFFF7EAFF7B68034A1A607B68181CBD4602B080BDF06C000080B582B000AF786039607B68E6
:402D8000012B07D13B68054A934203D1044B181CFFF7DEFFBD4602B080BDC046FFFF00008C03002080B500AF034B0120191CFFF7E1FFBD4680BDC046FFFF000080B500AFF3
:402DC000FEE7C04680B500AF044B0F20191C03F0F3F9034B00221A60BD4680BD1D2F000090030020B0B582B000AF021C3960FB1D1A70FB1D1B787F2B2FD92D4CFB1D1B7829
:402E00001A1C0F231340083B9908294AFB1D1B78181C0F230340083B9B0806339B00D3185B68FA1D1278101C03220240D200101CFF228240D2431A403B689B01FF2003409F
:402E4000F81D0078051C03202840C00083401A438B1D9B00E3185A6026E0164CFB1D1B785BB29B081349FA1D127852B29208C03292005258F91D0978081C03210140C900CC
:402E8000081CFF218140C94311403A689201FF200240F81D0078051C03202840C00082400A43C0339B001A51BD4602B0B0BDC04600ED00E000E100E080B582B000AF786075
:402EC0007B68013B0C4A934201D9012310E00B4B7A68013A5A6001235B42181C0321FFF781FF064B00229A60044B07221A600023181CBD4602B080BDFFFFFF0010E000E069
:402F000080B500AFFFF75EFF034B181CFFF7D4FF62B6BD4680BDC046C05D000080B500AF034B1B685A1C024B1A60BD4680BDC0469003002080B584B000AF786039603B687D
:402F40001B68181C0C4903F095FD0B1CFB603B681B68181C084903F007FD031CBB607B681A68BB68D2187B681A603B68FA681A60BD4604B080BDC04600CA9A3B80B582B014
:402F800000AF78607B68181CFEF74CFA7B68034A1A607B68181CBD4602B080BDB06D000080B584B000AF786039600023FB60FB68181CBD4604B080BD80B584B000AF7860E6
:402FC00039600023FB60FB68181CBD4604B080BD80B582B000AF7860024B181CBD4602B080BDC046306D000080B582B000AF7860024B181CBD4602B080BDC046406D000017
:4030000080B582B000AF7860044B1B780122D31ADAB2024B1A70BD4602B080BD9403002080B500AF074B00221A70064B1B78181C02F0B8FA044A054B101C191C00F048F8D7
:40304000BD4680BD940300201C0100209803002080B500AF034B1B78181C02F0A3FABD4680BDC0469403002080B582B000AF78607B68034A1A607B68181CBD4602B080BD3B
:40308000C86D000080B584B000AFF860B9607A603B60FB68181CFFF7E7FFFB680B4A1A60FB680C33181CFFF769FFFB687A681A61FB6800225A61FB683A689A61FB68BA687F
:4030C0009A60FB68181CBD4604B080BD986D000080B584B000AF786039600023FB6016E07B68FA687E329200D358002B0CD139687B68FA687E329200D150FB6864331A1C16
:403100003B685A60012306E0FB680133FB60FB68092BE5DD0023181CBD4604B080BDC04680B582B000AF786039607B68012B0CD13B68074A934208D10649074A074B081C61
:40314000111C1A1C0123FFF79DFFBD4602B080BDFFFF000098030020646D00000130000080B582B000AF786039607B680C331A1C3B68101C191CFFF71FFF7B681B69002B00
:4031800006D07B681B697A680C32101C984709E07B685B69002B05D07B685B697A680C32101C9847BD4602B080BDC04680B582B000AF78607B689B69181CBD4602B080BD52
:4031C00080B582B000AF78607B680C33181CFFF7FFFE031C181CBD4602B080BD80B582B000AF78607B680C33181CFFF7FDFE031C181CBD4602B080BD80B500AF034B012086
:40320000191CFFF78DFFBD4680BDC046FFFF000080B584B000AFF860B9607A603B60FB68BA681A60FB687A685A60FB683A681A61FB68181CBD4604B080BDC04690B583B00E
:4032400000AF786039607B68DB681B681C687B68D9687B689A683B68081C111C1A1CA047031C181CBD4603B090BDC04680B582B000AF78607B68181CFEF7D4F87B68054A93
:403280001A607B68044A5A607B68181CBD4602B080BDC046406E0000D86D000080B584B000AF786039600023FB607B685B68181C03F023FC031CBB60FB683A68D218082360
:4032C000FB18101C191C042203F006FCFB680433FB60FB683A68D1187B685A68BB68081C111C1A1C03F0F8FBFA68BB68D318FB60FB68181CBD4604B080BDC04680B586B060
:4033000000AF7860396000233B613B693A68D3180C22BA18101C191C042203F0DDFB3B6904333B613B697B610BE07B69013B3A68D31839687A698A1812781A707B6901334A
:403340007B613A69FB68D2187B699A42EDD83A69FB68D318013B3A68D31800221A703B69013B3A68D2187B685A603A69FB68D3183B613B69181CBD4606B080BD80B582B0CB
:4033800000AF7860024B181CBD4602B080BDC046DC6D000080B582B000AF7860024B181CBD4602B080BDC046EC6D000080B500AF064A074B101C191C00F036F8FEF77EFE8E
:4033C000021C044B1A60BD4680BDC0461C010020BC030020D003002080B500AFFEF76EFE021C0D4B1B68D31ADA17D31ADB0FDBB2002B0FD0084B1B68FA2292009A18064B80
:403400001A60064B064A5A60064A044B101C191CFFF714FFBD4680BDD0030020B4030020D4000020BC03002080B584B000AF786039600023FB6019E07B68FA686A3292005E
:40344000D358002B0FD17B68FA686A3292003968D150FB686E331A1C3B689A607A683B68DA60012306E0FB680133FB60FB68132BE2DD0023181CBD4604B080BD80B582B03D
:4034800000AF786039607B68012B10D13B68094A93420CD1084B181CFFF7E8FE0749084A054B081C111C1A1C0023FFF7B1FEBD4602B080BDFFFF0000B4030020BC0300200A
:4034C000106E000080B500AF034B0120191CFFF7D5FFBD4680BDC046FFFF000080B582B000AF78607B68181CFDF79CFF7B68054A1A607B6800221A717B68181CBD4602B01C
:4035000080BDC046006F000080B584B000AF786039600023FB607B681A790823FB181A70FB683A68D3180822BA1812781A70FB680133FB60FB68181CBD4604B080BDC04611
:4035400080B584B000AF786039600023FB600823FB1800221A700823FB181A78FB683968CB181B781343DAB20823FB181A700823FB181A787B681A71FB680133FB60FB68D3
:40358000181CBD4604B080BD80B582B000AF7860024B181CBD4602B080BDC0468C6E000080B582B000AF7860024B181CBD4602B080BDC0469C6E000080B500AF074A084B89
:4035C000101C191CFFF730FF02F094FC031C5A425341DAB2034B1A70BD4680BD1C010020DC030020F003002080B582B000AF02F081FC031C1A1CFB1D51424A411A70224B7A
:403600001B78FA1D12789A4208D0FEF757FD031C1A1C1E4B1A601E4B00221A701C4B1B7801225340DBB2002B0CD0FEF747FD031C1A1C164B1B68D21A164B1B689A4201DDCC
:40364000012300E00023002B16D0134BFA1D12781A71124A104B101C191CFFF7EFFD0C4B01221A70FB1D1B78002B05D00C4A0D4B101C191C00F018F8034BFA1D12781A7057
:40368000BD4602B080BDC046F0030020F4030020E8000020E4000020D4030020DC0300201C010020C06E000080B582B000AF786039607A683B68101C01211A1CFFF788FA73
:4036C000BD4602B080BDC04680B582B000AF786039607B68012B10D13B68094A93420CD1084B181CFFF7FAFE0749084A054B081C111C1A1C0023FFF78BFDBD4602B080BD32
:40370000FFFF0000D4030020DC030020D06E000080B500AF034B0120191CFFF7D5FFBD4680BDC046FFFF000080B582B000AF78607B68181CFDF776FE7B68054A1A607B68C5
:4037400000229A807B68181CBD4602B080BDC046906F000080B584B000AF786039600023FB60FB683A68D3187A689288D2B21A70FB6801333A68D3187A689288120A92B27E
:40378000D2B21A70FB680233FB60FB68181CBD4604B080BD80B584B000AF786039600023FB60FB683A68D3181B789AB27B689A807B689B8899B2FB6801333A68D3181B78A2
:4037C0001B029BB20A1C13439BB29AB27B689A80FB680233FB60FB68181CBD4604B080BD80B582B000AF7860024B181CBD4602B080BDC046106F000080B582B000AF7860FB
:40380000024B181CBD4602B080BDC046206F000080B584B000AF78600E23FB187A6892881A800E23FB181A88F423FF339A4204D80E23FB18FA2252001A800E23FB181A889D
:40384000FA23DB009A4204D90E23FB18FA22D2001A800E23FB181B88181C02F0B5F9BD4604B080BD80B500AF044A054B101C191C00F032F802F088F9BD4680BD1C0100202F
:40388000F803002080B500AFBD4680BD80B584B000AFF860B9607A603B60FB68181CFFF7E3FBFB680B4A1A60FB680C33181CFFF73BFFFB687A685A61FB6800229A61FB6845
:4038C0003A68DA61FB68BA689A60FB68181CBD4604B080BD786F000080B584B000AF786039600023FB6016E07B68FA687E329200D358002B0CD139687B68FA687E3292001B
:40390000D150FB6864331A1C3B685A60012306E0FB680133FB60FB68092BE5DD0023181CBD4604B080BDC04680B582B000AF786039607B68012B0CD13B68074A934208D11E
:403940000649074A074B081C111C1A1C0123FFF79DFFBD4602B080BDFFFF0000F8030020446F00001138000080B582B000AF786039607B680C331A1C3B68101C191CFFF738
:4039800009FF7B685B69002B06D07B685B697A680C32101C984709E07B689B69002B05D07B689B697A680C32101C9847BD4602B080BDC04680B582B000AF78607B68DB6996
:4039C000181CBD4602B080BD80B582B000AF78607B680C33181CFFF703FF031C181CBD4602B080BD80B582B000AF78607B680C33181CFFF701FF031C181CBD4602B080BDA1
:403A000080B500AF034B0120191CFFF78DFFBD4680BDC046FFFF000080B582B000AF78607B68181CFDF7FEFC7B68054A1A607B6800225A607B68181CBD4602B080BDC046CB
:403A40006070000080B584B000AF786039600023FB607B685B68BB60FB683A68D318BA68D2B21A70FB6801333A68D318BA68120AD2B21A70FB6802333A68D318BA68120CB9
:403A8000D2B21A70FB6803333A68D318BA68120ED2B21A70FB680433FB60FB68181CBD4604B080BD80B584B000AF786039600023FB600023BB60BB68FA6839688A1812786B
:403AC0001343BB60BA68FB6801333968CB181B781B021343BB60BA68FB6802333968CB181B781B041343BB60BA68FB6803333968CB181B781B061343BB60BA687B685A6073
:403B0000FB680433FB60FB68181CBD4604B080BD80B582B000AF7860024B181CBD4602B080BDC046A06F000080B582B000AF7860024B181CBD4602B080BDC046B06F000009
:403B400080B582B000AF78607B68181CFDF76AFC7B68054A1A607B6800229A807B68181CBD4602B080BDC0464870000080B584B000AF786039600023FB607B689A8808231D
:403B8000FB181A80FB683A68D3180822BA181288D2B21A70FB6801333A68D3180822BA181288120A92B2D2B21A70FB680233FB60FB68181CBD4604B080BDC04680B584B0AF
:403BC00000AF786039600023FB600823FB1800221A800823FB181A88FB683968CB181B789BB213439AB20823FB181A800823FB181B8899B2FB6801333A68D3181B781B020C
:403C00009BB20A1C13439BB29AB20823FB181A800823FB181A887B689A80FB680233FB60FB68181CBD4604B080BDC04680B582B000AF7860024B181CBD4602B080BDC04682
:403C4000D46F000080B582B000AF7860024B181CBD4602B080BDC046E46F000080B500AF124A134B101C191CFFF7DEFB0F4A114B101C191CFFF7D8FBFEF720FA021C0E4B14
:403C80001A60FEF71BFA021C0C4B1A6001F0FEFF02F042F80120082102F016F8084B00221A80084B00225A60BD4680BD1C010020200400203C0400205004002054040020E2
:403CC000580400201804002080B582B000AF01F0EFFF031C9AB2BB1C5204520C1A80174BBA1C12889A80BB1C00229A5E144B1B881BB2D31A7B607A688023DB019A4205DDF4
:403D00007B68104A944663447B6009E07B680E4A934205DA7B6880221202944663447B600A4B5A687B68D218084B5A60044BBA1C12881A80BD4602B080BDC0463404002083
:403D4000580400200080FFFF00C0FFFF1804002080B500AFFEF7B2F9021C194B1B68D31ADA17D31ADB0FDBB2002B0DD0144B1B680A229A18124B1A60FFF7A6FF114A124B92
:403D8000101C191CFFF75AFAFEF798F9021C0F4B1B68D31ADA17D31ADB0FDBB2002B0DD00A4B1B68C8229A18084B1A60FFF78CFF074A084B101C191CFFF740FABD4680BD56
:403DC000540400203C0400203404002050040020200400201804002080B582B000AF786039607B68012B1DD13B68104A934219D10F4B181CFFF710FE0E490F4A0C4B081CA2
:403E0000111C1A1C0023FFF703FA0C4B181CFFF797FE0B490B4A094B081C111C1A1C0023FFF7F6F9BD4602B080BDC046FFFF00001804002020040020087000003404002021
:403E40003C0400201070000080B500AF034B0120191CFFF7C1FFBD4680BDC046FFFF000080B582B000AF78607B689A88024B1A80BD4602B080BDC0465C04002080B500AFAA
:403E8000074A084B101C191C00F074F8FEF716F9021C054B1A60042001F04CFFBD4680BD1C010020640400206004002080B500AFFEF704F9021C1A4B1B68D31ADA17D31A25
:403EC000DB0FDBB2002B28D0154B1B680A229A18134B1A60134B1B881BB2002B0CDD062001F028FF0F4B1B889BB29BB2013B9BB29AB20C4B1A8010E00A4B1B881BB2002B32
:403F00000BDA072001F016FF064B1B889BB29BB201339BB29AB2034B1A80BD4680BDC046600400205C04002080B584B000AFF860B9607A603B60FB68181CFFF795F8FB6867
:403F40000B4A1A60FB680C33181CFFF7F9FDFB687A685A61FB6800229A61FB683A68DA61FB68BA689A60FB68181CBD4604B080BDE070000080B584B000AF786039600023EA
:403F8000FB6016E07B68FA687E329200D358002B0CD139687B68FA687E329200D150FB6864331A1C3B685A60012306E0FB680133FB60FB68092BE5DD0023181CBD4604B0BD
:403FC00080BDC04680B582B000AF786039607B68012B0CD13B68074A934208D10649074A074B081C111C1A1C0123FFF79DFFBD4602B080BDFFFF000064040020A4700000AE
:40400000613E000080B582B000AF786039607B680C331A1C3B68101C191CFFF7CFFD7B685B69002B06D07B685B697A680C32101C984709E07B689B69002B05D07B689B690B
:404040007A680C32101C9847BD4602B080BDC04680B582B000AF78607B68DB69181CBD4602B080BD80B582B000AF78607B680C33181CFFF7DBFD031C181CBD4602B080BD8B
:4040800080B582B000AF78607B680C33181CFFF7D9FD031C181CBD4602B080BD80B500AF034B0120191CFFF78DFFBD4680BDC046FFFF000080B582B000AF7860002001F05E
:4040C000CFFEBD4602B080BD80B500AF0A4A0B4B101C191CFFF7A8F9074A094B101C191CFEF7F6FFFDF7EAFF021C064B1A6001F08BFEBD4680BDC0461C0100208C04002018
:40410000A0040020BC04002080B500AFFDF7D6FF021C0E4B1B68D31ADA17D31ADB0FDBB2002B11D0094B1B68C8229A18074B1A6001F0A2FE031C1A1C054B5A60054A044B19
:40414000101C191CFFF77AF8BD4680BDBC040020840400208C04002080B582B000AF786039607B68012B19D13B680E4A934215D10D4B181CFFF750FC0C490D4A0A4B081CD5
:40418000111C1A1C0023FFF743F80A490A4A0B4B081C111C1A1C0123FEF774FFBD4602B080BDC046FFFF0000840400208C04002058710000A004002060710000B540000097
:4041C00080B500AF034B0120191CFFF7C5FFBD4680BDC046FFFF000080B582B000AF78607B68181CFDF71EF97B68084A1A607B68074A5A607B6800229A607B680022DA604E
:404200007B68181CBD4602B080BDC046F07200009071000080B584B000AF786039600023FB607B685B68181C02F067FC031CBB60FB683A68D2180823FB18101C191C0422E8
:4042400002F04AFCFB680433FB60FB683A68D1187B685A68BB68081C111C1A1C02F03CFCFA68BB68D318FB60FB683A68D2187B689B68DBB21370FB6801333A68D2187B68F4
:404280009B681B0ADBB21370FB6802333A68D2187B689B681B0CDBB21370FB6803333A68D2187B689B681B0EDBB21370FB680433FB60FB683A68D2187B68DB68DBB2137027
:4042C000FB6801333A68D2187B68DB681B0ADBB21370FB6802333A68D2187B68DB681B0CDBB21370FB6803333A68D2187B68DB681B0EDBB21370FB680433FB60FB68181CAF
:40430000BD4604B080BDC04680B586B000AF7860396000233B613B693A68D3180C22BA18101C191C042202F0D7FB3B6904333B613B697B610BE07B69013B3A68D31839688D
:404340007A698A1812781A707B6901337B613A69FB68D2187B699A42EDD83A69FB68D318013B3A68D31800221A703B69013B3A68D2187B685A603A69FB68D3183B613B699B
:404380003A68D3181B781A1C7B689A607B689A683B6901333968CB181B781B021A437B689A607B689A683B6902333968CB181B781B041A437B689A607B689A683B690333B2
:4043C0003968CB181B781B061A437B689A603B6904333B613B693A68D3181B781A1C7B68DA607B68DA683B6901333968CB181B781B021A437B68DA607B68DA683B69023314
:404400003968CB181B781B041A437B68DA607B68DA683B6903333968CB181B781B061A437B68DA603B6904333B613B69181CBD4606B080BD80B582B000AF7860024B181C67
:40444000BD4602B080BDC0469471000080B582B000AF7860024B181CBD4602B080BDC046B471000080B582B000AF78607B68181CFCF7D8FF7B680A4A1A607B6800221A71A3
:404480007B680833181CFFF7A7FE7B6800229A617B680022DA617B68181CBD4602B080BDD872000080B584B000AF786039600023FB60FB685A1CFA601A1C3B689B187A68D4
:4044C00012791A70FB685A1CFA601A1C3B689B1800221A70FB685A1CFA601A1C3B689B1800221A70FB685A1CFA601A1C3B689B1800221A700B23FB1800221A701FE07B6897
:404500009A690B23FB181B781B01D3181B681A687B6899690B23FB181B781B01C818FB683968CB18191C9047021CFB689B18FB600B23FB181A780B23FB1801321A707B68AD
:404540001B790B22BA1812789A42D8D3FB683A68D2187B68DB69DBB21370FB6801333A68D2187B68DB691B0ADBB21370FB6802333A68D2187B68DB691B0CDBB21370FB680D
:4045800003333A68D2187B68DB691B0EDBB21370FB680433FB60FB68181CBD4604B080BD80B584B000AF786039600023FB60FB685A1CFA601A1C3B689A180A23FB181278CA
:4045C0001A707B681B790A22BA1812789A4204D27B680A22BA1812781A71FB680333FB600B23FB1800221A7029E07B680833191CFB683A68D318081C191CFFF785FE021C6D
:40460000FB689B18FB607B681B790B22BA1812789A420DD27B689A690B23FB181B781B01D2187B680833101C191C102202F054FA0B23FB181A780B23FB1801321A700B239E
:40464000FA180A23FB1812781B789A42CDD3FB683A68D3181B781A1C7B68DA617B68DA69FB6801333968CB181B781B021A437B68DA617B68DA69FB6802333968CB181B7837
:404680001B041A437B68DA617B68DA69FB6803333968CB181B781B061A437B68DA61FB680433FB60FB68181CBD4604B080BDC04680B582B000AF7860024B181CBD4602B044
:4046C00080BDC046D871000080B582B000AF7860024B181CBD4602B080BDC046F471000080B582B000AF78607B68181CFCF79AFE7B68094A1A607B680433181CFFF7B2FE2E
:404700007B682422002199547B6800229A627B68181CBD4602B080BDC072000080B584B000AF786039600023FB607B68191DFB683A68D318081C191CFFF7B4FE021CFB6874
:404740009B18FB60FB685A1CFA601A1C3B689B187A682421525C1A70FB685A1CFA601A1C3B689B1800221A70FB685A1CFA601A1C3B689B1800221A70FB685A1CFA601A1CCE
:404780003B689B1800221A700B23FB1800221A7014E0FB683A68D2187B68996A0B23FB181B78CB181B781370FB680133FB600B23FB181A780B23FB1801321A707B68242288
:4047C0009B5C0B22BA1812789A42E2D3FB68181CBD4604B080BDC04680B584B000AF786039600023FB607B68191DFB683A68D318081C191CFFF7D4FE021CFB689B18FB6057
:40480000FB685A1CFA601A1C3B689A180A23FB1812781A707B6824229B5C0A22BA1812789A4205D27B680A22BA18242112785A54FB680333FB600B23FB1800221A7025E0C7
:40484000FB683A68D31819787B6825229954FB680133FB607B6824229B5C0B22BA1812789A420CD27B689A6A0B23FB181B78D2187B682533101C191C012202F02DF90B23A1
:40488000FB181A780B23FB1801321A700B23FA180A23FB1812781B789A42D1D3FB68181CBD4604B080BDC04680B582B000AF7860024B181CBD4602B080BDC04618720000B6
:4048C00080B582B000AF7860024B181CBD4602B080BDC0463472000080B584B000AF786000F09EFE7B689B6A1B78181C7B689B6A591C7B6824229B5C013B1A1C002300F07E
:4049000021FF031CFB60FB68002B02D1044B01221A707B68242208219954BD4604B080BD1A05002080B584B000AF786000F078FE7B6824229B5C012B00D843E07B689A6A8A
:404940007B6824215B5C013BD3181A781F4B1A707B689B6A1A781E4B1A707B6824229B5C022B16D91A4B1B78181C7B689B6A591C7B6824229B5C023B1A1C002300F0E2FEF3
:40498000031CFB60FB68002B02D1124B02221A7014E00F4B1B78191C0F4B9A6A0B4B1B78081C111C1A1C002300F05AFF031CBB60BB68002B02D1074B03221A707B6824223C
:4049C00008219954BD4604B080BDC04619050020180500201A050020C004002080B500AF00F01EFE244B01221A72234B00221A62214B224ADA61204BDB69214A5A601E4B9F
:404A0000DB6900229A601C4BDB690822DA601A4B1C4A9A62184B2422082199541A4A1B4B101C191CFEF700FD194B1A4A5A63184B302208219954164B174A9A62144B0122D4
:404A40001A75114A124B101C191C00F0C5F8134B104A5A63114B3022082199540F4B0E4A9A620E4B01221A75074A0C4B101C191C00F0B2F8BD4680BDC0040020EC04002018
:404A800058720000FC0400201C010020040500201C050020B4050020A40500206005002080B582B000AF344B1B78022B06D100F091FF031E022B01D1012300E00023002B20
:404AC00017D02E4B1B78191C2D4B9A6A2D4B1B78081C111C1A1C002300F0C2FE031C7B607B68002B02D1244B03221A7000F094FF3FE0214B1B78032B06D100F06BFF031E93
:404B0000012B01D1012300E00023002B1ED000F03DFF031CD9B21A4B2422995400F040FF174BDB69164A2421525C9A60164A144B101C191CFEF782FB114B2422082199545D
:404B40000D4B00221A7000F067FF12E00A4B1B78012B06D100F03EFF031E022B01D1012300E00023002B04D0034B00221A7000F053FFBD4602B080BD1A05002018050020E1
:404B8000C0040020190500200405002080B584B000AFF860B9607A603B60FB68181CFEF763FAFB680B4A1A60FB680C33181CFFF797FDFB687A689A63FB680022DA63FB68CA
:404BC0003A681A64FB68BA689A60FB68181CBD4604B080BDA872000080B584B000AF786039600023FB6016E07B68FA687E329200D358002B0CD139687B68FA687E32920092
:404C0000D150FB6864331A1C3B685A60012306E0FB680133FB60FB68092BE5DD0023181CBD4604B080BDC046B0B582B000AF786039607B68012B38D13B681D4A934234D16D
:404C40001C4B181CFFF74CFD1B4B00241D1C04E0281CFFF7C1FA1035013C631CF8D11749174A144B081C111C1A1C0023FEF7D0FA1449154A154B081C111C1A1C0123FFF7AE
:404C800085FF1349134A144B081C111C1A1C0123FFF77CFF114B00241D1C04E0281CFFF79BFA1035013C631CF8D1BD4602B0B0BDFFFF0000C0040020EC04002004050020C9
:404CC000607200001C0500206C720000D9480000600500207872000025490000A405002080B582B000AF786039607B680C331A1C3B68101C191CFFF76FFD7B689B6B002BA3
:404D000006D07B689B6B7A680C32101C984709E07B68DB6B002B05D07B68DB6B7A680C32101C9847BD4602B080BDC04680B582B000AF78607B681B6C181CBD4602B080BDAD
:404D400080B582B000AF78607B680C33181CFFF7ABFD031C181CBD4602B080BD80B582B000AF78607B680C33181CFFF7A9FD031C181CBD4602B080BD80B500AF034B012094
:404D8000191CFFF751FFBD4680BDC046FFFF000080B582B000AF78607B68181CFCF742FB7B680C4A1A607B6800229A807B680022DA807B6800221A817B6800225A817B686B
:404DC00000229A817B680022DA817B68181CBD4602B080BD6873000080B584B000AF786039600023FB60FB683A68D3187A689288D2B21A70FB6801333A68D3187A68928811
:404E0000120A92B2D2B21A70FB680233FB60FB683A68D3187A68D288D2B21A70FB6801333A68D3187A68D288120A92B2D2B21A70FB680233FB60FB683A68D3187A681289A9
:404E4000D2B21A70FB6801333A68D3187A681289120A92B2D2B21A70FB680233FB60FB683A68D3187A685289D2B21A70FB6801333A68D3187A685289120A92B2D2B21A7018
:404E8000FB680233FB60FB683A68D3187A689289D2B21A70FB6801333A68D3187A689289120A92B2D2B21A70FB680233FB60FB683A68D3187A68D289D2B21A70FB680133B0
:404EC0003A68D3187A68D289120A92B2D2B21A70FB680233FB60FB68181CBD4604B080BD80B584B000AF786039600023FB60FB683A68D3181B789AB27B689A807B689B8823
:404F000099B2FB6801333A68D3181B781B029BB20A1C13439BB29AB27B689A80FB680233FB60FB683A68D3181B789AB27B68DA807B68DB8899B2FB6801333A68D3181B78AC
:404F40001B029BB20A1C13439BB29AB27B68DA80FB680233FB60FB683A68D3181B789AB27B681A817B681B8999B2FB6801333A68D3181B781B029BB20A1C13439BB29AB22D
:404F80007B681A81FB680233FB60FB683A68D3181B789AB27B685A817B685B8999B2FB6801333A68D3181B781B029BB20A1C13439BB29AB27B685A81FB680233FB60FB6897
:404FC0003A68D3181B789AB27B689A817B689B8999B2FB6801333A68D3181B781B029BB20A1C13439BB29AB27B689A81FB680233FB60FB683A68D3181B789AB27B68DA81C1
:405000007B68DB8999B2FB6801333A68D3181B781B029BB20A1C13439BB29AB27B68DA81FB680233FB60FB68181CBD4604B080BD80B582B000AF7860024B181CBD4602B0C8
:4050400080BDC0460073000080B582B000AF7860024B181CBD4602B080BDC0461473000080B582B000AF786039607B68012B10D13B68094A93420CD1084B181CFFF788FE6A
:405080000749084A054B081C111C1A1C0023FEF7BFF8BD4602B080BDFFFF0000BC050020CC0500203873000080B500AF034B0120191CFFF7D5FFBD4680BDC046FFFF0000A5
:4050C00080B500AFFEE7C04680B586B000AF214B7B61214B3B611F4B7B611F4B3B612FE03B691B68FB603B695B68BB603B699B683B6000237B600AE0BB681A1DBA60FA6818
:40510000111DF96012681A607B6804337B607A683B689A42F0D13B69DB683B6000237B6007E0BB681A1DBA6000221A607B6804337B607A683B689A42F3D13B6910333B61C9
:405140007B695A1E7A61002BCAD101F09FFCFDF721F8FEE701000000F076000080B582B000AF00237B600FE07B68032B04D8134B7A689200D35800E0114B124A796889005E
:405180008B507B6801337B607B682F2BECD9FCF709F80D4B00221A600C4B1B68002B02D10A4B00221A608023DB058022D205126801210A431A60BD4602B080BD801000008E
:4051C000C150000000000020C8000020C000002080B582B000AF786039607A683B68101C00211A1C01F081FCBD4602B080BDC04680B586B000AF7860396000233B61002354
:405200007B612FE07B699B007A68D3181B68BB600F23FB18BA681A70BB68FF229343BB6018E03B695B003A68D3181B781A1CBB68D318191C3B695B003A68D3185B780B7009
:405240003B6901333B610F23FB181A780F23FB18013A1A700F23FB181B78002BE1D17B6901337B617B69082BCCD9BD4606B080BD80B500AF084B094A1A60094B04221A6086
:40528000084B094A1A60094B074A1A60012000F00FF8BD4680BDC0468000104004012400C000104000031A40C000400040031A4080B584B000AF021CFB1D1A700B4B1B689D
:4052C000FB60FB1D1B78002B05D0FB68802212061343FB6003E0FB685B005B08FB60034BFA681A60BD4604B080BDC04680031A4080B584B000AF021CBB1D1A807B1D0A1C14
:405300001A70084B1B681B0C1B04FB60BB1D1A88FB681343BB60034BBA681A60BD4604B080BDC0464400024080B500AF00F0C0F8BD4680BD80B500AF054B054A126880214A
:4053400009060A431A6000F017F8BD4680BDC0460000064080B500AF064B1B78002B04D1FFF7E2FF034B01221A70FFF7E3FFBD4680BDC046EC05002080B500AF0A2000F005
:40538000B9FFBD4680BDC04680B582B000AF00237B600E4B1A680E4B1B689A4211D00C4B1B6801333B603B68412B01D100233B60084A3B68D3181B78DBB27B60044B3A6853
:4053C0001A607B68181CBD4602B080BD88060020D00600208C06002080B582B000AF0C4B1B683B600B4B1B683A689A4205D3094B1B683A68D31A7B6005E0064B1B683A687E
:40540000D31A41337B607B68181CBD4602B080BD88060020D006002080B584B000AF78601C4B1B680133FB60FB68802B01D10023FB60C046184B1B68FA689A42FAD0154B68
:405440001A68154B1B689A4209D1144B1B680F221340082B03D0124B7A681A6016E0114B02221A607B68D9B20F4AFB68D3180A1C1A70084BFA681A600223BB600B4B1B68EF
:40548000BA681343BB60094BBA681A60BD4604B080BDC04600060020040600200802064040020640800F064008060020880F064080B500AF244B254A1A60254B00221A601F
:4054C000244B01221A60244B244A1A60244B07221A60244B00221A60234B01221A60234B1E4A1A60224B00221A600A2000F016FF0A20032100F0AAFE1E4B0A20191C00F0FB
:405500007FFE1D4B00221A601C4B00221A601C4B00221A601B4B00221A601B4B04221A601A4B00221A601A4B00221A60194B00221A60194B00221A70184B00221A60184B68
:4055400000221A60BD4680BD000006400F00000240000640480006400003064007000080040306401003064044000640000206400402064081630000880E0640C80E064074
:40558000480F0640080F0640C80F0640880F064088060020D0060020D4060020000600200406002080B584B000AF021CFB1D1A700E4B1B68DAB20F23FB1840218A431A70CC
:4055C000FB1D1B789B01DBB240221340D9B20F23FB180F22BA1812780A431A70034B0F22BA1812781A60BD4604B080BD0001044080B500AF00F032F8BD4680BD80B500AF3E
:40560000064B064A1268802109060A431A6000F019F800F01FF8BD4680BDC0460000074080B500AF064B1B78002B04D1FFF7E0FF034B01221A70FFF7E1FFBD4680BDC0468F
:40564000F405002080B500AF0B2000F053FEBD4680BDC04680B500AFBD4680BD80B500AF234B234A12680C210A431A60214B00221A60214B214A1A60214B224A1A60224B12
:4056800000221A60214B00221A60214B1D4A1A60204B00221A600B2000F040FE0B20032100F0D4FD1C4B0B20191C00F0A9FD1B4B00221A601A4B00221A601A4B00221A6028
:4056C000194B1422FF321A60184B00221A60184B00221A60174B10221A70174B00221A80164B00221A60164B00221A60BD4680BD700007400000074060000740770800804D
:4057000000030740070100800403074010030740000207400402074099640000C80E0740880E0740480F0740080F0740C80F0740880F0740D5060020DA060020DC0600206D
:40574000E806002080B586B000AFF860B9607A603B6004237B61BB68002B20D0324B1B78DBB2102B0CD10B2000F0D8FD2F4B1B680122134001D0082300E000237B610EE0F9
:40578000294B1B78DBB2602B09D1294B1B889BB2082293439AB2264B1A8000237B617B69002B38D1204B28221A70224B00221A60214B00221A60214B7A681A60204BBA6879
:4057C0001A603B68DAB21F4B1A70FB685B00FF221340FB60164B1B889BB2022293439AB2134B1A80184B194A1A60194B40221A60184B40221A603B680122134005D000F053
:4058000023F9154BFA681A6005E0134BFA681A60124B02221A600B2000F06CFD7B69181CBD4606B080BDC046D506002064000740DA060020F4060020E8060020EC0600207E
:40584000E0060020D8060020000F074017030000800F0740880F0740400207406800074080B586B000AFF860B9607A603B6004237B61BB68002B20D0374B1B78DBB2102BAA
:405880000CD10B2000F04AFD344B1B680122134001D0082300E000237B610EE02E4B1B78DBB2602B09D12E4B1B889BB2082293439AB22B4B1A8000237B617B69002B43D183
:4058C000254B29221A70274B00221A60264B7A681A60264BBA681A603B68DAB2244B1A70FB685B00FF22134001221343FB601C4B1B889BB2012293439AB2194B1A801D4B4B
:405900001D4A1A60184B1B68072B03D81B4B04221A6009E01A4B1A4A1268802149000A431A60164B08221A603B680122134005D000F08AF8134BFA681A6005E0114BFA686E
:405940001A60114B02221A600B2000F0D3FC7B69181CBD4606B080BDD506002064000740DA060020DC060020E4060020F0060020D8060020000F074017030000C80F074067
:4059800060000740400207406800074080B500AF024B1B68181CBD4680BDC046DC06002080B500AF0B2000F0B9FC084B00221A60074B1B889BB2012293439AB2044B1A80C5
:4059C0000B2000F097FCBD4680BDC046DC060020DA06002080B582B000AF0B2000F09EFC0B4B1B889BB27B600A4B1B78DBB220221340DBB2002B03D07B68042213437B60F6
:405A00000B2000F077FC7B68181CBD4602B080BDDA060020D506002080B582B000AF0B2000F07CFC074B1B889BB27B60054B00221A800B2000F05EFC7B68181CBD4602B0C1
:405A400080BDC046DA06002080B582B000AF254B1B687B60C04600F05BFA031EFBD0002000F064FA204B204A126820490A401A601F4B1F4A1268520052081A607B68202246
:405A8000134010D0002000F051FA0A2000F064FC012000F04BFAC04600F06EFA031EFBD00A2000F059FC002000F040FA0A2000F053FC104B01221A600D4B0D4A126880215A
:405AC00009060A431A60084B074A126807490A40E02109030A431A60012000F027FABD4602B080BD6400074000000140FFFFF0FF000007406800074080B500AF0F4B802271
:405B0000D2041A600D4B0D4A12681A600B4B0B4A12681A600A4B0C221A60002000F07EF8084B181C00F042F8074B181C00F04CF8064B31221A60BD4680BDC04640010540FB
:405B400064010540204E0000DC0500006801054090B583B000AFFC1D00F027FA031C2370084B084A126802210A431A60FB1D1B78181C00F01EFA0220182100F033F8BD4612
:405B800003B090BD0000054080B500AF064B1B78002B04D1FFF7B0FF034B01221A70FFF7D7FFBD4680BDC046FC05002080B582B000AF7860034B7A681204120C1A60BD4636
:405BC00002B080BD5401054080B582B000AF7860034B7A681204120C1A60BD4602B080BD4C01054090B585B000AF786039600F23FC1800F0DAF9031C2370074B3A687968A2
:405C000091400A1C1A600F23FB181B78181C00F0D0F9BD4605B090BD0800054080B582B000AF7860024B7A681A60BD4602B080BD7801054080B500AF064BC82292041A6066
:405C4000054BC32292001A60002000F059F8BD4680BDC046000105402401054090B583B000AFFC1D00F0A1F9031C2370064B064A126801210A431A60FB1D1B78181C00F03D
:405C800098F9BD4603B090BD0000054080B500AF064B1B78002B04D1FFF7CCFF034B01221A70FFF7DBFFBD4680BDC046FD05002080B500AF034B1B681B041B0C181CBD461D
:405CC00080BDC0460801054090B585B000AF786039600F23FC1800F068F9031C2370074B3A68796891400A1C1A600F23FB181B78181C00F05EF9BD4605B090BD0800054045
:405D000080B582B000AF7860024B7A681A60BD4602B080BD3801054080B500AF044B044A1268802109060A431A60BD4680BDC0468000024080B582B000AF021CFB1D1A700C
:405D4000034AFB1D1B781370BD4602B080BDC04672000F4090B583B000AF214B1B78DAB2FB1D07218A431A701D4AFB1D1B7801210B43DBB213701A4B1B78DAB2FB1D032154
:405D80008A431A70164AFB1D1B78137000F0A4F802235B42181C00F087F802235B42181C00F05EF8002000F041F800F04FF8802000F086F8BC1D00F0F8F8031C2370094A85
:405DC000084B1B78DBB210210B43DBB21370BB1D1B78181C00F0EDF8BD4603B090BDC04671000F4093000F4080B500AF0549054B1B78DBB2802252421343DBB20B70BD4649
:405E000080BDC04671000F4080B500AF064B1B78002B04D1FFF79EFF034B01221A70FFF7E3FFBD4680BDC046FE05002080B582B000AF021CFB1D1A70034AFB1D1B78137077
:405E4000BD4602B080BDC04683000F4080B500AF024B1B78DBB2181CBD4680BD63000F4080B582B000AF7860024B7A681A60BD4602B080BD00200F4080B500AF034B1B7824
:405E8000034B1B68181CBD4680BDC04600000F4000210F4080B500AF024B1B68181CBD4680BDC04600210F4080B582B000AF7860024B7A681A60BD4602B080BD80200F40C2
:405EC00080B582B000AF7860024B7A681A60BD4602B080BDC0200F4080B500AF01E0FFF7D9FFFFF7B3FF031C1A1C40231340F6D1BD4680BD80B500AF044B1B6880221340F2
:405F0000DB09DBB2181CBD4680BDC0460400044080B500AF044B1B68202213405B09DBB2181CBD4680BDC0460400044080B584B000AF021CFB1D1A700E4B1B68DAB20F23BE
:405F4000FB1810218A431A70FB1D1B781B01DBB210221340D9B20F23FB180F22BA1812780A431A70034B0F22BA1812781A60BD4604B080BD0000044080B500AF044B1B6836
:405F8000102213401B09DBB2181CBD4680BDC04604000440000000000230800804D0C0460138FDD1C046C0467047EFF3108072B6704780F31088704790B587B000AF786075
:405FC00030233B617B68022B00D8C9E07B68302B00D9C5E00B23FC18FFF7E7FF031C23700023FB6011E0614AFB68D3181B78191C5F4B1B683F221340994203D1FB6803333C
:406000003B6105E0FB680133FB60FB682D2BEAD9584B1B78DBB21A1E7B689A420AD3564A1723FB1812781A70544A1623FB1812781A703FE0524B1B78DBB21A1E7B689A4206
:406040000AD3504A1723FB1812781A704E4A1623FB1812781A702DE04C4B1B78DBB21A1E7B689A420AD34A4A1723FB1812781A70484A1623FB1812781A701BE0464B1B78B2
:40608000DBB21A1E7B689A420AD3444A1723FB1812781A70424A1623FB1812781A7009E0404A1723FB1812781A703F4A1623FB1812781A703B692A2B0AD97B682A2B07D9F3
:4060C0002B4B19221A600520FFF766FF18233B617A683B699A421ED9344B7A6832498C4662441278D2B21A60314B1722BA1812781A60304B1622BA1812781A60052000F0C0
:406100002BF91B4B7A68033A18498A5C1A600520FFF742FF1DE0164B7A68033A13498A5C1A600520FFF738FF204B7A681E498C4662441278D2B21A601D4B1722BA1812785D
:406140001A601C4B1622BA1812781A60052000F003F90B23FB181B78181CFFF72AFF02E0002000F0EFF8BD4607B090BD707600002CFF0B40C0F1FF0FC1F1FF0FC2F1FF0F7C
:40618000C3F1FF0FC4F1FF0FC5F1FF0FC6F1FF0FC7F1FF0FC8F1FF0FC9F1FF0FCAF1FF0FCBF1FF0FCCF1FF0FCDF1FF0F28FF0B401CFF0B4020FF0B4080B584B000AF021CDA
:4061C0003960FB1D1A7080239B05FB60FB1D1B780F2B02D9002000F0B5F8FB1D1B789B00FA68D3181B68BB60FB1D1B789B00FA68D3183A681A60BB68181CBD4604B080BD1E
:4062000080B584B000AF021C3960FB1D1A7080239B05FB60FB1D1B781F2B02D9002000F091F8FB1D1B7810339B00FA68D3181B68BB60FB1D1B7810339B00FA68D3183A68FA
:406240001A60BB68181CBD4604B080BD90B587B000AF021CFB1D1A70BB1D0A1C1A70BB1D1B78032B02D9002000F06CF8FB1D1B781F2B02D9002000F065F8FB1D1B780322F1
:406280001340DB0006337B611323FC18FFF78DFE031C2370FB1D1B789B08DBB29B00144A944663441B68FB607B6903229A40131CDA43FB681340FB60BB1D1A787B699A4083
:4062C000131CFA681343FB60FB1D1B789B08DBB29B00074A94466344FA681A601323FB181B78181CFFF765FEBD4607B090BDC04600E400E080B582B000AF021CFB1D1A7028
:40630000054BFA1D12781F210A40012191400A1C1A60BD4602B080BD00E100E080B582B000AF021CFB1D1A70054BFA1D12781F210A40012191400A1C1A60BD4602B080BDC6
:4063400080E100E080B582B000AF021CFB1D1A7001BEBD4602B080BD80B582B000AF021CBB1D1A80BB1D1B88044A12785343181CFFF712FEBD4602B080BDC046F400002080
:4063800080B584B000AF334B1B68002B02D0314B1B689847304B1B680422134027D01EE02E4B1B687B602E4B1B680133FB60FB68412B01D10023FB602A4B1B68FA689A42C6
:4063C00003D1294B20221A7009E07B68D9B2274AFB68D3180A1C1A70214BFA681A60244B1B680F221340DBD1224B04221A60224B1B68022213402AD020E0204B1A68204B93
:406400001B689A4213D01E4B1B680133BB60BB68802B01D10023BB601A4B1B49BA688A181278D2B21A60164BBA681A6006E0174B164A126802218A431A6005E0144B1B689C
:406440000F221340082BD8D1124B02221A60BD4604B080BDF0050020CC0F06404003064088060020D0060020D40600208C06002008030640C00F06408C0F06400006002051
:40648000040600204002064008060020880F064008020640800F064080B582B000AF00233B60BE4B1B68002B02D0BC4B1B689847BB4B1B680122134002D0BA4B00221A60C2
:4064C000B94B1B78DBB220221340DBB2002B38D0B64B1A6880235B0013400AD0B44B1B889BB2C022920013439AB2B14B1A8001233B60AE4B1B68012213400AD0AC4B1B88B5
:406500009BB29022920013439AB2A94B1A8001233B603B68002B14D0A34B1B78DBB201221340DBB2002B01D0012300E00223A04A128892B213439AB29D4B1A809A4B002200
:406540001A70994B1B78DBB220221340DBB2002B00D1A2E1954B1B681022134018D0954B10221A60904B1B78DBB201221340DBB2002B01D0012300E002238D4A128892B2B8
:4065800013439AB28A4B1A80874B10221A70BAE1854B1B78DBB208221340DBB2002B29D0824B1B68022213400ED0824B02221A607F4B1B889BB28822920013439AB27C4B14
:4065C0001A8001233B6015E0774B1B78DBB201221340DBB2002B03D0734B25221A7009E0714B24221A70744B1B68002B02D0734B10221A606C4B1B78DBB204221340DBB2E0
:40660000002B00D111E1684B1B78DBB201221340DBB2002B5BD06A4B1B680822134033D0684B1A68684B1B680F211940674B1B68CB18D31A7B607B68082B02D908237B60BD
:406640000CE07B68002B09D1614B614A126861490A401A6008237B6001233B6010E05E4B1A685A4B1B68D2185C4B1B68DBB21370564B1B685A1C554B1A607B68013B7B602D
:406680007B68002BEBD11EE04D4B1B680422134019D0514B1A684D4B1B68D2184F4B1B68DBB21370494B1B685A1C484B1A60474B1A68444B1B689A4203D2494B04221A60A0
:4066C00001E001233B60474B474A1A60ADE0374B1B680222134032D0364B02221A60434B1B680F221A40414B196880231B020B4001D0012300E00023D2183D4B1B689A1ADE
:406700003B4B1A603A4B1A683A4B1A60284B1B889BB28422920013439AB2254B1A80364B354A1268802149020A431A60324B324A126832490A401A6001233B6075E0304B9E
:406740001B681022134065D015E0294B1A681A4B1B689A420ED22B4A2B4B1968244B1B68CB181B78DBB21360214B1B685A1C204B1A6000E005E01D4B1B680F221340082BC8
:40678000E3D11B4B1A680C4B1B689A4202D10B4B40221A601D4B1E4A1A6046E0F80500208C0E0740880E0740D50600200C0F0740DA060020000F0740EC060020880F074094
:4067C000CC0F0740E406002008030740DC06002060000740FFFEFFFFF00600204003074068000740C00F0740ED0F000008020740F4060020E806002004020740FFFFFEFF55
:406800008C0F074040020740E0060020800F0740F30700003D4B1B684022134005D03C4B1A683C4B1A6001233B603B68002B6AD0394B394A126839490A401A60384B002245
:406840001A60384B00221A60374B1B78DBB202221340DBB2002B15D0344B1B78DBB201221340DBB2002B01D0092300E00A23304A128892B213439AB22D4B1A802B4B6022EE
:406880001A7040E02B4B2C4A126820210A4001D0182200E010221A6035E0244B1B78DBB210221340DBB2002B2DD1244B234A1268520052081A601D4B10221A70164B164A66
:4068C00012681F490A401A60134B134A12681D490A401A60124B00221A60124B00221A60194B1A4A1A601A4B1A4A1A601A4B1B4A1A601B4B1B4A1A60104B104A12688021C3
:4069000009060A431A60BD4602B080BD8C0F0740F4060020E806002060000740FFFEFFFFC80F0740880F0740D8060020D5060020DA0600206800074064000740000007404D
:40694000FF5FFFFFFFFCFFFF800F0740ED0F0000C00F0740F3070000400F0740FF0F0000000F074017030000002243088B4274D303098B425FD3030A8B4244D3030B8B4274
:4069800028D3030C8B420DD3FF22090212BA030C8B4202D31212090265D0030B8B4219D300E0090AC30B8B4201D3CB03C01A5241830B8B4201D38B03C01A5241430B8B426A
:4069C00001D34B03C01A5241030B8B4201D30B03C01A5241C30A8B4201D3CB02C01A5241830A8B4201D38B02C01A5241430A8B4201D34B02C01A5241030A8B4201D30B02AB
:406A0000C01A5241CDD2C3098B4201D3CB01C01A524183098B4201D38B01C01A524143098B4201D34B01C01A524103098B4201D30B01C01A5241C3088B4201D3CB00C01AA1
:406A4000524183088B4201D38B00C01A524143088B4201D34B00C01A5241411A00D20146524110467047FFE701B5002000F00CF802BDC0460029F7D003B5FFF775FF0EBC56
:406A80004243891A1847C0467047C0460E4B70B500251E1C0D4CE41AA410A54204D0AB00F35898470135F8E700F0FAFD084B00251E1C084CE41AA410A54204D0AB00F358AF
:406AC00098470135F8E770BDAC760000AC760000AC760000E0760000002310B5934203D0CC5CC4540133F9E710BD031C8218934202D019700133FAE770470023C25C0133DE
:406B0000002AFBD1581E704700000000000000007374645F6D7367732F54696D650000006364373136366337346335353263333131666263633266653561376263323839F0
:406B40000000000000000000726F7373657269616C5F6D7367732F546F706963496E666F00000000306164353166383866633434383932663863313036383430373736345D
:406B80003630303500000000726F7373657269616C5F6D7367732F4C6F670000313161626437333163323539333332363163643631383362643132643632393500000000AA
:406BC0003966306539386264613635393831393836646466353361666137613430653439000000004D6573736167652066726F6D206465766963652064726F707065643A18
:406C0000206D657373616765206C6172676572207468616E206275666665722E00000000726F7373657269616C5F6D7367732F52657175657374506172616D000000000029
:406C40000000000000000000092A000051230000492C0000000000000000000000000000BD2D0000BD2D0000BD2D00000000000000000000000000006D1B0000C51D0000D0
:406C800079200000912000000000000000000000F1190000611A0000F51A00000D1B0000000000000000000059160000B51700008D190000A519000000000000000000002F
:406CC000711400001D150000E1150000F91500000000000000000000BD2D0000BD2D0000BD2D0000BD2D00000000000000000000792C0000C12C0000112D0000726F73739A
:406D0000657269616C5F6D7367732F52657175657374506172616D000000000000000000BD2D0000BD2D0000BD2D0000000000007374645F6D7367732F456D7074790000C4
:406D4000643431643863643938663030623230346539383030393938656366383432376500000000746F67676C655F6C65640000726F7373657269616C5F6D7367732F52EC
:406D8000657175657374506172616D0000000000000000000000000061310000AD310000C1310000DD3100000000000000000000A12F0000B92F0000D12F0000E92F00000B
:406DC0000000000000000000BD2D0000BD2D0000BD2D0000BD2D0000000000007374645F6D7367732F537472696E670039393263653861313638376365633863386264380A
:406E0000383365633733636134316431000000006368617474657200726F7373657269616C5F6D7367732F52657175657374506172616D0000000000000000000000000016
:406E40009D320000FD3200007D3300009533000000000000726F7373657269616C5F6D7367732F4C6F6700003131616264373331633235393333323631636436313833623D
:406E80006431326436323935000000007374645F6D7367732F426F6F6C000000386239346331623533646236316662366165643430363032386164363333326100000000D0
:406EC000627574746F6E207075736865640000007075736865640000726F7373657269616C5F6D7367732F52657175657374506172616D00000000000000000000000000CE
:406F0000093500004135000089350000A13500007374645F6D7367732F55496E743136003164663739656466323038623632396665366238313932336135343435353264F0
:406F400000000000736572766F5F757300000000726F7373657269616C5F6D7367732F52657175657374506172616D0000000000000000000000000069390000B539000015
:406F8000C9390000E539000000000000000000005537000095370000E1370000F93700007374645F6D7367732F496E743332000064613539303966626533373861656166F6
:406FC00038356535343765383330636331626237000000007374645F6D7367732F496E74313600003835323435383665333466626437636231633038633566356631636114
:407000003065353700000000656E636F64657200636F756E74657200C80000000A000000726F7373657269616C5F6D7367732F52657175657374506172616D0000000000A7
:4070400000000000000000006D3B0000BD3B00002D3C0000453C00000000000000000000453A0000A53A0000113B0000293B00007374645F6D7367732F496E743136000053
:40708000383532343538366533346662643763623163303863356635663163613065353700000000737465707065725F6D6F7665000A040607000000726F7373657269613F
:4070C0006C5F6D7367732F52657175657374506172616D00000000000000000000000000054000005140000065400000814000007374645F6D7367732F496E7433320000A3
:407100006461353930396662653337386165616638356535343765383330636331626237000000007374645F6D7367732F456D7074790000643431643863643938663030EE
:407140006232303465393830303939386563663834323765000000007570646F776E00007570646F776E5F726573657400000000C8000000726F7373657269616C5F6D7338
:4071800067732F52657175657374506172616D00000000007374645F6D7367732F4D756C7469417272617944696D656E73696F6E0000000034636430633833613836383376
:4071C0006465616534306563646163363065353362666138000000007374645F6D7367732F4D756C746941727261794C61796F75740000003066656432613131633133657D
:407200003131633535373162346532613939356139316133000000007374645F6D7367732F55496E74384D756C74694172726179000000003832333733663136313233382C
