:400000000010002011000000810300008103000008B500F005FC00F0B5F90000F8B572B680220021D2004D4800F03BFF8023DA004B48002100F035FF0022101C4949FF25A9
:4000400054584700261CAE431031E3B2351CC919002B07D00F78013B7E194F78DBB237700231F5E7E4B204320019102AE6D1C0223D4D9104296080203C4F3D4C3D4A3E4DC5
:40008000C10399263E6023603C4F1060C02429603B4A3C49600340263E6010603A4F0B603A4B022531263A4C1D6099203E6039498023394F256002041E06384C0A60802018
:4000C0003E603749374E384B2260384F82050A601E603C78062025433D703D78344A05433D7011688026F3020B43324F324C13603878324E2178171C3578172D05D9304A32
:400100007078B178033E9642F6D12E4B2E4C2F4E1925186021600520356000F031FD2C482C4A01780520116000F0FEFD3C682A4B2A4D23402A483B60202610272F608021BE
:400140000660284F284D294E294A2A4B2A480C0614601C602F600660F8BDC04600300F4000400F40C00E000004000140100001400C00014000000440080004400001044016
:40018000080104400803044008040440000404401804044000500F4004500F4010500F4018500F40100001002001054000700F4000010B40CCF1FF0FCDF1FF0FC9F1FF0F22
:4001C000BDF1FF0F1CFF0B4020FF0B402CFF0B40E5F1FF0F28FF0B40FFFFFBFF08020240200202401000008000000240AF04008008010B4004010B404000024010B5064CBD
:400200002378002B07D10548002802D0044800E000BF0121217010BDF000002000000000BC0E000008B5084B002B03D00748084900E000BF07480168002903D0064A002A19
:4002400000D0904708BDC04600000000BC0E0000F4000020D00000200000000010B562B600F084FC00280ED16524012000F046FD00F07CFC002806D1013CE4B2002CF4D1E2
:40028000034B40221A6000F063FC00F09BFAFEE7C000002008B500F0EDFA00F025FB00F08DFB08BD70B5054B0D1C161C0024C9B21C8000F077FB3580201C70BD0C010020E2
:4002C000F0B50A275F4387B002900591161C00252A4CBD4219DA00F0F5FA80B220802388002B0CD00220278800F008FD00F0EAFA81B221802288BA42F4D8002706E00120F7
:40030000013500F0FBFCADB2E2E7052700253580208800282FD023883088019301994218059993B233808B4221D201982A1893B2049304998D4209D002994819039000F0E7
:40034000A7FA039A01351070ADB2F2E772B62088019A831A99B2218062B602984219013A1378172BD4D0052000F0C8FCD0E7308000F0BAFA0527381C07B0F0BD0C010020AF
:4003800000B5FEE770B50F490F4A01394B1C14D0506895681468031C1E1AAE4202D040CC40C3F9E7D0681D1C5C1B844202D0002640C3F9E710320139E8E700F043FDFFF715
:4003C0004DFFFEE701000000100F000008B500239A00032B02D80D48815800E00C490D4801338150302BF3D1FFF718FE0A490B4B086800221A60002800D108608022D305B2
:40040000186801210843186008BDC046000000008103000000000020C0000020C80000200047000038B5041C013806280BD800F0FFFC2406260F11080400174820E0174B5A
:4004400009E0174B07E0002000F04AFC002302E0144B00E0144B5A78187800021043022C04D0032C07D0012C15D104E0040A0302234398B20FE000BA0DE00C4800E00C48BA
:40048000C578817842780378180628430D02284311040843E3E738BDD87F0000C57F0000D47F0000D27F0000D67F0000C17F0000C97F000038B50220FFF7B4FF051C032097
:4004C000FFF7B0FF6C1CE1010C180220FFF7AAFF0023421CD201191CA24209D21078451EEDB2FD2D00D80121C318DBB20132F3E705485B420578DCB2AC4201D0062002E0E1
:400500000029FBD0002038BDC07F0000F0B5A34CA544FFF7BFFE62B600250095002603AF962124A849003A1CFF23FFF7C9FE0028F5D139880423062967D924AA1478012CCC
:4005400063D193236B4492221F786A4413783C021C4324AF3A19177953790197E71D9C4603238F4251D89179042317294DD1E3189BB2002B08D0BAAA8949D7187A18177881
:40058000013BC01980B2F3E762464042019F110282B239430823914237D168E0342900D09AE0012D00D0F6E0032C00D0F3E06FA80021802200F075FC80266FA9881935190A
:4005C0002639E21EFF39AEB200F062FC832E00D0DAE0BC797979009F26020E43002F0AD1391C802204A800F05CFCFF2004A900F0D7FA01200090301C6FA900F0D1FA0125C4
:40060000002800D1C3E000260A23002168469130012703706A4624AC6B4692330E32277000200F1D197058701180BBB25C4FBAACE418E4192778013BC0199BB280B2002BD0
:40064000F4D14442A0B2BAAF564C7B181F19564C38701F19554C000A38701B19172707311F7089B224A89623FFF71CFE57E724AF79783B79081C31380A2801D90523C4E707
:4006800000F0CCFB0611FC8C2FFC32428C507800012D00D07FE0002C7DD1FFF70BFF434243413B7163E0012D75D1012C73D1002B71D13F4A25A8146821889524CF0907704D
:4006C0003A0A97209627FF216C446F446844397022700370042199E7012D5CD1022C5AD96BE7012D57D119E7012D54D19620371943009F424DD86FAA901925A9221C00F0FC
:40070000C7FBBEB2002380E7002C44D104AB294A191CA0CAA0C125AF21CB21C708210125231C73E7012D36D1032C34D196226A449521177869440C7838021A02204387186D
:40074000FF01002280210139CC5D1219D2B20029F9D1002B08D1FF2806D1174B174918780C78171A3A1BD2B2504224AB1871002301214BE7FFF79EFE002802D110488024E5
:40078000046000F0AFFA06E00125002601E0061CB8E7032339E7042337E7C04614FDFFFFA7FDFFFFACFDFFFFADFDFFFFAEFDFFFFD4000020E40E0000D07F0000D17F0000A9
:4007C000C0000020144810B50368002219680B1C013BBF2B03D01C781219D2B2F8E740680478A21AD3B2A34201D1002902D1002000F076FAFFF75EFE084C2168221C40293A
:4008000001D0002803D000231360FFF77FFE8020206000F067FA10BDD4000020C000002008B50B4B10201A680A49024000D10A600B68802B0BD1002201200A60FFF7F2FDB0
:40084000002804D00120FFF7EDFDFFF7E9FD08BD00030B40C000002008B5054B802219681006084318600A2000F026FA08BDC0460000064010B5054C2378002B03D100F0B8
:40088000BFF801202070FFF7E7FF10BD10010020094B00B51968094B1A6891420AD019684A1C4039481E8141484205490240885C1A6000E0002000BDAC010020240100201A
:4008C00068010020064B074A1B68116800B58B4202D31268981A02E010684133181A00BDAC010020240100200C4A0D4B002130B5106811601D68802464022C431C601D68E3
:40090000084C2C401C60084B084C1D68084B25601970084D08492960106030BDC80F064004030640FFFFFEFF24010020AC010020A9010020C00F0640ED0F0000124910B5F0
:400940000A68531C3F3A541EA241544223400F4A1468A342FBD00C681268944208D10C4C0F2224682240082A02D00A4A10600AE0094C02222260094CC0B2E0540B60084BD0
:4009800019680A431A6010BD200100201C0100200802064040020640800F064028010020880F064038B5041C4518AC4204D02078FFF7C4FF0134F8E738BD00000B4A0023D3
:4009C000116810B513600A4B80201C684002204318601C68074820401860074B07481C68022399430460116010BDC046880F064004020640FFFFFEFF1C0100202001002095
:400A00001D4A1E4B1E4810B51E4900241A60046001221D4B1D480A601D490360072008601C491D4804600A601C4A0A2013601C4B1C6000F04BF90A20032100F01DF9194938
:400A40000A2000F00DF918481849194A194B04600C60146018491C60184A194B04200860146018481C601849184A194B04600C7014601C6010BDC0460B00000200000640EE
:400A80004000064048000640070000800003064004030640440006401003064000020640040206403D0D0000880E0640C80E0640480F0640080F0640C80F0640880F064058
:400AC000AC01002024010020A9010020200100201C0100200E4B8422D00418601968802250020843186019680A481960C3239A00094B026000210948094A196009490A4BB2
:400B000010600A4A19600A4910601C20086070470001054024010540380105401027000014010540881300000C010540080105402801054008B500F02CF8044B01211A682E
:400B40000A431A6000F029F808BDC0460000054010B5054C2378002B03D1FFF7BBFF01202070FFF7E7FF10BD18010020024B18680106C80F7047C0460400044000000000EA
:400B80000230800804D0C0460138FDD1C046C0467047EFF3108072B6704780F310887047F0B50023A7B0071C0193FF2845D8994243D0244A244C04AE26607F25049206A8BE
:400BC0008022756000F064F9204D214929602B68002BFCDB2068A0210290029A0B069A4201D1002004E00298020F0F2A02D10920019003E021680B0F0A2BFBD1019A002A45
:400C00001DD12660134E3F0437430497FFF7C1FF1149124A0B6803932A602F68002FFCDB039DA0260D60FFF7B8FF2468310602940298884203D0029800E001200190019816
:400C400027B0F0BDB6D70000080000400400004004000080B6D8000008010B400500008000B51F2800D901BE024A800083181868196000BD4000002038B5041C0D1E032D73
:400C800000D901BE1F2C00D901BEFFF782FFA308084A99008B1803221440944019680634A2409143A5400C1C2C431C60FFF775FF38BDC04600E400E01F231840024A012122
:400CC000814011607047C04600E100E01F231840024A0121814011607047C04680E100E001BE7047034B04491A6890B2084318607047C0460CED00E00400FA0510B5041CF6
:400D00008022074B1002844205D91868FFF738FF04496418F4E758686043FFF731FF10BDDC0000200080FFFF08B5034B197A4843FFF726FF08BDC046DC000020264B10B5A7
:400D40001868002800D0804724490A6852071DD5234C23681A0716D0224B234A186811684B1C40394C1EA1414C42204923400C68A34203D11E4B20221A70E9E71D49C0B2A6
:400D8000C8541360E4E71C49042008601B4A1468A20720D51A4B0F2118680140082917D0184A194B1468186884420CD01C68621C3F3C601E8441614214480A40845C144951
:400DC0000C601A60E6E7134C022122688A432260114B0220186010BD14010020CC0F06400803064040030640AC01002024010020A901002068010020C00F06408C0F064097
:400E000008020640200100201C0100202801002040020640880F0640800F064002B4714649084900095649008E4402BC7047C04602B4714649084900095C49008E4402BC20
:400E40007047C04670B50E4B0E4D0024E81A85101E1CAC4204D0A100725890470134F8E700F044F80849094A0E1C541AA5100024AC4204D0A300F05880470134F8E770BDD9
:400E8000F80E0000F80E0000F80E0000000F000010B50023934203D0CC5CC4540133F9E710BD00B58218031C934202D019700133FAE700BD400F0000D100000000000000D0
:400EC00001330F4003410F4004430F4002600F40E61062048E04D84018808C40C608E608020111019311C80411140101F8B5C046F8BC08BC9E46704725020000CD03000006
:400F0000F8B5C046F8BC08BC9E467047FD010000200F0000D000002020000000C000000000000000B40E0000B80E00000000E02EC05D00001800000000366E01000000007E
:400F40000000000000000000000000000000000000000000000000000000000000000000000000000000000000000000000000000000000000000000000000000000000071
:400F800000100020910F0000E9460000E946000080B500AF024B83F3088803F0A9FBC0460010002080B584B000AF021CFB1D1A70224A3B1C0B3312781A70214A3B1C0A3313
:400FC00012781A701F4B1B68013BFB601AE01E4B1868391C0B31FA68131C5B009B18C31801331B780B70184B1868391C0A31FA68131C5B009B18C31802331B780B70FB6896
:40100000013BFB60FB68002B0ADB0F4B1968FA68131C5B009B185B5CFA1D12789A42D6D90A4B3A1C0B3212781A60094B3A1C0A3212781A60BD4604B080BDC046CCF1FF0FAE
:40104000CDF1FF0F94780000F40000201CFF0B4020FF0B4080B500AF264B264A12688021C9020A431A601820FFF79CFF224B19221A60052005F0C4F9204B214A1278D2B29C
:401080001A60052005F0A0FA1A4B1A4A11681D4A0A401A601C4B21221A601C4B20221A601B4B10221A601B4B11221A601A4B30221A601A4B31221A60194B822212061A602C
:4010C000184B802212061A60174B184A1A60184B184A1A60184B802212061A60174B184A1A60184B184A1A60184B194A1A60BD4680BDC04600010B402CFF0B4028FF0B400E
:40110000E5F1FF0FFFFFFBFF0802024014020240180202401C020240200202402402024008010B4004010B4000000240FE00008040000240FE0000C08000024004000240FB
:4011400002000080440002400C000080840002401700008080B582B000AF72B6FB1D00221A7023E0FB1D1A78131C5B009B185B004A4A9B183B603B681A78597809020A43F7
:40118000997809040A43DB781B0613431A1C3B6819795B791B020B439BB2101C191C03F033FBFB1DFA1D127801321A70FB1D1B78012BD7D93A4A3B4B101C191C03F034FBF7
:4011C000394B3A4A1A603A4B3A4A1A603A4B99221A603A4BFF221A60394B3A4A1A603A4B07221A60394B3A4A1A603A4B87221A60394BCF221A60394B394A1A60394BC02266
:401200001A60394B03221A60384B394A1A60394B02221A60384B06221A60384B31221A60374B06221A60374B992212041A60364B364A1A60364B374A1A60374BA0221205B7
:401240001A60364B334A1A60354BA02212051A60344BD822D2031A60334B992212041A60324BC02292021A60314B324A1A60324B314A1278D2B202210A43D2B21A702E4B3C
:401280002D4A1278D2B206210A43D2B21A70FFF7E1FE03F009FBBD4602B080BDAC750000B8750000DC75000008000140333300000C00014003EE0000100001400000044048
:4012C00008000440244D9200000104400801044000901800180104400002044008020440B69D0000180204400003044008030440860D0000180304400004044008040440A3
:401300001804044000500F4004500F400000AAAA10500F400400990014500F4020500F4024500F4028500F4030500F4038500F4020010540F0000E0000700F4010B5064C8F
:401340002378002B07D10548002802D0044800E000BF0121217010BD20010020000000001C6E000008B5084B002B03D00748084900E000BF07480168002903D0064A002AD7
:4013800000D0904708BDC046000000001C6E000024010020D00000200000000080B582B000AF78607B6800221A607B6800225A607B68181CBD4602B080BDC04680B584B058
:4013C00000AF786039600023FB60FB683A68D2187B685B68DBB21370FB6801333A68D2187B685B681B0ADBB21370FB6802333A68D2187B685B681B0CDBB21370FB68033312
:401400003A68D2187B685B681B0EDBB21370FB680433FB60FB683A68D2187B689B68DBB21370FB6801333A68D2187B689B681B0ADBB21370FB6802333A68D2187B689B681F
:401440001B0CDBB21370FB6803333A68D2187B689B681B0EDBB21370FB680433FB60FB68181CBD4604B080BD80B584B000AF786039600023FB60FB683A68D3181B781A1CB1
:401480007B685A607B685A68FB6801333968CB181B781B021A437B685A607B685A68FB6802333968CB181B781B041A437B685A607B685A68FB6803333968CB181B781B0642
:4014C0001A437B685A60FB680433FB60FB683A68D3181B781A1C7B689A607B689A68FB6801333968CB181B781B021A437B689A607B689A68FB6802333968CB181B781B04CA
:401500001A437B689A607B689A68FB6803333968CB181B781B061A437B689A60FB680433FB60FB68181CBD4604B080BD80B582B000AF7860024B181CBD4602B080BDC0469A
:40154000206E000080B582B000AF7860024B181CBD4602B080BDC046306E000080B588B000AF786039600023FB61FB693A68D3187A689288D2B21A70FB6901333A68D318AC
:401580007A689288120A92B2D2B21A70FB690233FB617B689B68181C05F038FC031CBB61FB693A68D2183B1C1833101C191C042205F01AFCFB690433FB61FB693A68D11844
:4015C0007B689A68BB69081C111C1A1C05F00CFCFA69BB69D318FB617B68DB68181C05F015FC031C7B61FB693A68D2183B1C1433101C191C042205F0F7FBFB690433FB6142
:40160000FB693A68D1187B68DA687B69081C111C1A1C05F0E9FBFA697B69D318FB617B681B69181C05F0F2FB031C3B61FB693A68D2183B1C1033101C191C042205F0D4FBB7
:40164000FB690433FB61FB693A68D1187B681A693B69081C111C1A1C05F0C6FBFA693B69D318FB617B685B69FB60FB693A68D318FA68D2B21A70FB6901333A68D318FA6805
:40168000120AD2B21A70FB6902333A68D318FA68120CD2B21A70FB6903333A68D318FA68120ED2B21A70FB690433FB61FB69181CBD4608B080BDC04680B58AB000AF786012
:4016C00039600023BB61BB693A68D3181B781A1C7B689A807B689B889AB2BB6901333968CB181B781B029BB213439BB29AB27B689A80BB690233BB61BB693A68D3183A1C08
:401700001432101C191C042205F06EFBBB690433BB61BB697B620BE07B6A013B3A68D31839687A6A8A1812781A707B6A01337B62BA697B69D3187A6A9A429B415B42DBB284
:40174000002BE9D1BA697B69D318013B3A68D31800221A70BB69013B3A68D2187B689A60BA697B69D318BB61BB693A68D3183A1C1032101C191C042205F036FBBB690433F5
:40178000BB61BB693B620BE03B6A013B3A68D31839683A6A8A1812781A703B6A01333B62BA693B69D3183A6A9A429B415B42DBB2002BE9D1BA693B69D318013B3A68D318EA
:4017C00000221A70BB69013B3A68D2187B68DA60BA693B69D318BB61BB693A68D3183A1C0C32101C191C042205F0FEFABB690433BB61BB69FB610BE0FB69013B3A68D3189E
:401800003968FA698A1812781A70FB690133FB61BA69FB68D318FA699A429B415B42DBB2002BE9D1BA69FB68D318013B3A68D31800221A70BB69013B3A68D2187B681A612F
:40184000BA69FB68D318BB610023BB60BA68BB693968CB181B781343BB60BA68BB6901333968CB181B781B021343BB60BA68BB6902333968CB181B781B041343BB60BA686C
:40188000BB6903333968CB181B781B061343BB60BA687B685A61BB690433BB61BB69181CBD460AB080BDC04680B582B000AF7860024B181CBD4602B080BDC046546E00006D
:4018C00080B582B000AF7860024B181CBD4602B080BDC046706E000080B584B000AF786039600023FB60FB683A68D3187A6812791A70FB680133FB607B689B68181C05F0B4
:4019000085FA031CBB60FB683A68D2183B1C0833101C191C042205F067FAFB680433FB60FB683A68D1187B689A68BB68081C111C1A1C05F059FAFA68BB68D318FB60FB68A8
:40194000181CBD4604B080BD80B586B000AF7860396000233B613B693A68D3181A787B681A713B6901333B613B693A68D3183A1C0C32101C191C042205F036FA3B69043304
:401980003B613B697B610BE07B69013B3A68D31839687A698A1812781A707B6901337B613A69FB68D3187A699A429B415B42DBB2002BE9D13A69FB68D318013B3A68D318F0
:4019C00000221A703B69013B3A68D2187B689A603A69FB68D3183B613B69181CBD4606B080BDC04680B582B000AF7860024B181CBD4602B080BDC046946E000080B582B0C1
:401A000000AF7860024B181CBD4602B080BDC046A86E000080B588B000AF786039600023FB61FB693A68D3187A6812791A70FB690133FB61FB693A68D31800221A70FB69A7
:401A40000133FB61FB693A68D31800221A70FB690133FB61FB693A68D31800221A70FB690133FB613B1C1B3300221A7030E07B68DA683B1C1B331B789B00D3181B687B6111
:401A8000FB693A68D3187A69D2B21A70FB6901333A68D3187A69120AD2B21A70FB6902333A68D3187A69120CD2B21A70FB6903333A68D3187A69120ED2B21A70FB6904330A
:401AC000FB613B1C1B333A1C1B32127801321A707B681B793A1C1B3212789A429B415B42DBB2002BC3D1FB693A68D3187A68127C1A70FB690133FB61FB693A68D3180022C4
:401B00001A70FB690133FB61FB693A68D31800221A70FB690133FB61FB693A68D31800221A70FB690133FB613B1C1A3300221A7030E07B689A693B1C1A331B789B00D31802
:401B40001B683B61FB693A68D3183A69D2B21A70FB6901333A68D3183A69120AD2B21A70FB6902333A68D3183A69120CD2B21A70FB6903333A68D3183A69120ED2B21A70C5
:401B8000FB690433FB613B1C1A333A1C1A32127801321A707B681B7C3A1C1A3212789A429B415B42DBB2002BC3D1FB693A68D3187A68127F1A70FB690133FB61FB693A6872
:401BC000D31800221A70FB690133FB61FB693A68D31800221A70FB690133FB61FB693A68D31800221A70FB690133FB613B1C193300221A7035E07B685A6A3B1C19331B78F7
:401C00009B00D3181B68181C05F000F9031CFB60FB693A68D2183B1C0C33101C191C042205F0E2F8FB690433FB61FB693A68D1187B685A6A3B1C19331B789B00D3181A6858
:401C4000FB68081C111C1A1C05F0CEF8FA69FB68D318FB613B1C19333A1C1932127801321A707B681B7F3A1C193212789A429B415B42DBB2002BBED1FB69181CBD4608B090
:401C800080BDC04680B58AB000AF7860396000237B627B6A3A68D2183B1C1B3312781A707B6A01337B627B681B793A1C1B3212789A4204D27B683A1C1B3212781A717B6A5C
:401CC00003337B623B1C233300221A7045E000237B617A697B6A3968CB181B7813437B617A697B6A01333968CB181B781B0213437B617A697B6A02333968CB181B781B04AE
:401D000013437B617A697B6A03333968CB181B781B0613437B617A697B689A607B6A04337B627B681B793A1C233212789A420DD27B68DA683B1C23331B789B00D2187B681C
:401D40000833101C191C042205F04EF83B1C23333A1C2332127801321A703A1C23323B1C1B3312781B789A429B415B42DBB2002BADD17B6A3A68D2183B1C1A3312781A70A6
:401D80007B6A01337B627B681B7C3A1C1A3212789A4204D27B683A1C1A3212781A747B6A03337B623B1C223300221A7045E000233B613A697B6A3968CB181B7813433B6173
:401DC0003A697B6A01333968CB181B781B0213433B613A697B6A02333968CB181B781B0413433B613A697B6A03333968CB181B781B0613433B613A697B685A617B6A0433D7
:401E00007B627B681B7C3A1C223212789A420DD27B689A693B1C22331B789B00D2187B681433101C191C042204F0DEFF3B1C22333A1C2232127801321A703A1C22323B1C92
:401E40001A3312781B789A429B415B42DBB2002BADD17B6A3A68D2183B1C193312781A707B6A01337B627B681B7F3A1C193212789A4204D27B683A1C193212781A777B6A71
:401E800003337B623B1C213300221A7053E07B6A3A68D3183A1C0C32101C191C042204F0A3FF7B6A04337B627B6AFB610BE0FB69013B3A68D3183968FA698A1812781A7056
:401EC000FB690133FB617A6AFB68D318FA699A429B415B42DBB2002BE9D17A6AFB68D318013B3A68D31800221A707B6A013B3A68D2187B681A627A6AFB68D3187B627B68ED
:401F00001B7F3A1C213212789A420DD27B685A6A3B1C21331B789B00D2187B682033101C191C042204F060FF3B1C21333A1C2132127801321A703A1C21323B1C193312782E
:401F40001B789A429B415B42DBB2002B9FD17B6A181CBD460AB080BD80B582B000AF7860024B181CBD4602B080BDC0462C6F000080B582B000AF7860024B181CBD4602B018
:401F800080BDC046CC6E000080B582B000AF78607B681B69181CBD4602B080BD80B500AF024B1B68181CBD4680BDC046B003002080B582B000AF78607B68054A1A607B68AB
:401FC000E12212025A607B68181CBD4602B080BDAC03002080B582B000AF78607B681B681B681A687B6819687B685B68081C191C9047BD4602B080BD80B582B000AF7860C5
:402000007B681B681B6804331A687B681B68181C9047031C181CBD4602B080BD80B586B000AFF860B9607A6000237B6110E0FB681B681B6808331A68FB6819687B69B868E6
:40204000C3181B78081C191C90477B6901337B61012379697A68914200DB0023DBB2002BE5D1BD4606B080BD80B582B000AF7860FFF794FF031C181CBD4602B080BDC046EF
:4020800080B500AF00F0B0FE164B181C00F07EF801F0D0F901F07EFB01F0B0F801F052FC01F0A2FD02F0BAF801F0AAFF02F0D4F902F092FA01F0D6F901F082FB01F0E0F8A5
:4020C00001F068FC01F0A0FD02F0C0F802F010F802F0DAF902F0A0FA024B181C00F076F8E8E7C0463C01002080B582B000AF78607B68034A1A607B68181CBD4602B080BD56
:40210000686F000080B582B000AF78607B68034A1A607B68181CBD4602B080BDE06F000080B582B000AF78607B68181CFFF7EAFF7B68034A1A607B68181CBD4602B080BD41
:40214000806F000080B582B000AF78607B68181CFFF7CAFF7B680C4A1A607B680433181CFFF726FF7A688D239B000021D1547B68922292009B18181CFFF7D2FF7B68181C2F
:40218000BD4602B080BDC046506F000080B582B000AF78607B680433181CFFF71BFF7A6888239B000021D1507A6889239B000021D1507A688B239B000021D1507A688A234B
:4021C0009B000021D150BD4602B080BD80B584B000AF78607B680433181CFFF745FF031CFB607A688F239B00D358FA68D21ADC4B9A4204D97A688D239B000021D1547A6841
:4022000088239B00D358002B0DD07A6890239B00D258FB689A4206D27A6888239B000021D15000E0C0467B680433181CFFF7E4FE031CBB60BB68002B00DA97E17A688C23D3
:402240009B00D258BB68D1187A688C239B00D1507A6888239B00D358072B24D17A688B239B00D358BA68D1B278681822C01882181170591C7A688B239B00D1507A6889236F
:402280009B00D358591E7A6889239B00D1507A6889239B00D358002BC4D17A6888239B000821D150BEE77A6888239B00D358002B13D1BB68FF2BB5D17A6888239B00D358E4
:4022C000591C7A6888239B00D150FB68191CC8317A6890239B00D150A4E77A6888239B00D358012B1FD1BB68FE2B09D17A6888239B00D358591C7A6888239B00D15091E795
:402300007A6888239B000021D1507A688D239B00D35C01225340DBB2002B83D07B68181C00F05CF97EE77A6888239B00D358022B18D17A6889239B00B968D1507A688B23F1
:402340009B000021D1507A6888239B00D358591C7A6888239B00D1507A688C239B00B968D1505FE77A6888239B00D358032B14D17A6889239B00D258BB681B02D1187A68F7
:4023800089239B00D1507A6888239B00D358591C7A6888239B00D15044E77A6888239B00D358042B1CD17A688C239B00D2586D4B134003D5013B6C4A13430133FF2B09D151
:4023C0007A6888239B00D358591C7A6888239B00D15027E77A6888239B000021D15021E77A6888239B00D358052B13D17A688A239B00B968D1507A6888239B00D358591CB1
:402400007A6888239B00D1507A688C239B00B968D15007E77A6888239B00D358062B1CD17A688A239B00D258BB681B02D1187A688A239B00D1507A6888239B000721D1504D
:402440007A6889239B00D358002B00D0EAE67A6888239B000821D150E4E67A6888239B00D358082B00D0DDE67A6888239B000021D1507A688C239B00D2583A4B134003D578
:40248000013B394A13430133FF2B00D0CAE67A688A239B00D358002B14D17B68181C00F09DF87B68181C00F0C9F87A688E239B00F968D1507A688F239B00F968D1500123DB
:4024C0005B426EE07A688A239B00D3580A2B07D17B6818337A68101C191C00F09BF9A1E67A688A239B00D358062B0FD17B68922189005A187B681833101C191CFFF7C2FBDA
:402500007A6891239B000121D1548BE67A688A239B00D3581A1C643A7B687E329200D358002B00D17EE67A688A239B00D3581A1C643A7B687E329200D3581B681B68796879
:402540008A2292008A58111C64397A687E31890089587A681832081C111C984762E6C04698080000FF00008000FFFFFFC0467A688D239B00D35C002B12D07A688E239B0013
:40258000D358FA68D21AFA239B009A4208D97B68181C00F023F87A688E239B00F968D1500023181CBD4604B080BDC04680B582B000AF78607B68181CFFF7A4FD7B68064A3B
:4025C0001A607B680433181CFEF7E8FE7B68181CBD4602B080BDC046C86F000080B586B000AF78603B1C0C33181CFFF7DFFF7B681B681B6879683A1C0C32081C0A219847D6
:402600007B680433181CFFF72FFD021C7B68DA60BD4606B080BDC04680B582B000AF78607B68181CFFF76EFD7B68034A1A607B68181CBD4602B080BDB06F000090B58BB03B
:4026400000AF78603B1C0C33181CFFF7E5FF00237B625DE07B687A6A6A329200D358002B53D07B687A6A6A329200D3589B689AB23B1C0C339A807B687A6A6A329200D35845
:402680001A683B1C0C339A607B687A6A6A329200D3585B681B6808331A687B68796A6A318900CB585B68181C9047021C3B1C0C33DA607B687A6A6A329200D3585B681B68B6
:4026C0000C331A687B68796A6A318900CB585B68181C9047021C3B1C0C331A613B1C0C33C8225A617B681B681C687B687A6A6A329200D358181CFFF747FC021C79683B1C07
:402700000C33081C111C1A1CA0477B6A01337B627B6A1322D80FD117041C9A424C41231CDBB2002B96D100237B6260E07B687A6A7E329200D358002B56D07B687A6A7E32EA
:402740009200D3585B689AB23B1C0C339A807B687A6A7E329200D3589A683B1C0C339A607B687A6A7E329200D3581B6808331B687A68796A7E3189008A58101C9847021C9A
:402780003B1C0C33DA607B687A6A7E329200D3581B680C331B687A68796A7E3189008A58101C9847021C3B1C0C331A613B1C0C33C8225A617B681B681C687B687A6A7E321B
:4027C0009200D3581B6804331B687A68796A7E3189008A58101C9847021C79683B1C0C33081C111C1A1CA0477B6A01337B627B6A0922D80FD117041C9A424C41231CDBB2C8
:40280000002B93D17A688D239B000121D154BD460BB090BD90B587B000AF786039603B1C0833181CFFF7C2FE7B680433181CFFF71BFC021C7B68DB68D31A7B613A1C08327A
:402840003B68101C191CFEF70FFE3B1C08335C687B69181CFA23990004F0F0F9031CE2183B1C08335A603B1C08339C687B69181CFA23990004F026FA0B1C0D4A5343E21866
:402880003B1C08339A607A683B1C08330433101C191C00F0AFF87B680433181CFFF7E4FB011C7A688F239B00D150BD4607B090BD40420F0080B588B000AFF860B9607A605A
:4028C000BB68632B0ADDFA688D239B00D35C01225340DBB2002B01D0002380E07B681B681B68FA68E7327968081C111C9847031C7B61FA68E023FF21D154FA68E123FE2103
:40290000D1547B69D9B2FA68E223D1547B69DBB21B12D9B2FA68E323D154FA68E223D25CF968E323CB5CD318DBB2DB43D9B2FA68E423D154BB68D9B2FA68E523D154BB688F
:40294000DBB21B12D9B2FA68E623D1540023FB610523BB610BE0F968E023BA698A18D3181B78FA69D318FB61BB690133BB617B69D91D0123BA69914200DC0023DBB2002B64
:40298000E9D17B6907337B61FA69174B134003D5013B164A13430133DBB2DB43DAB2F868E02379694118CB181A707B6901337B617B69C82B0CDCFB68191DFB681A1CE03214
:4029C0007B69081C111C1A1CFFF728FB7B6906E0FA68074B101C191C00F046F80023181CBD4608B080BDC046FF00008000FFFFFFF06E000090B585B000AF786039607B689A
:402A00000433181CFFF730FB031CFB603B681C68FB68181CFA23990004F010F9031CE31A5A1E7B681A613B685C68FB68181CFA23990004F047F90B1C094A5343E31A0949E6
:402A40005A187B685A617B681A1C10327B681433101C191C00F0E2F9BD4605B090BDC04640420F0000CA9A3B80B582B000AF786039607A683B68101C03211A1C00F016F8CA
:402A8000BD4602B080BDC04680B582B000AF78607B68181CFFF736FB7B68034A1A607B68181CBD4602B080BD986F000080B588B000AFF8607A603B1C0B330A1C1A703B1C4E
:402AC0001433181CFFF7E0FF3B1C14333A1C0B3212781A713B1C14337A689A60FB681B681B68F9683A1C1432081C07219847BD4608B080BD80B582B000AF786039607B68D3
:402B0000012B07D13A68054B9A4203D1044B181CFFF718FBBD4602B080BDC046FFFF00003C01002080B582B000AF78607A688D239B00D35C181CBD4602B080BD80B500AFBC
:402B4000034B0120191CFFF7D5FFBD4680BDC046FFFF000080B584B000AF786039603B681B01FB60FB685B080B4A9B18181CF96804F064F8031C1A1C3B1C0A331A803B1C73
:402B80000A331B88181C002101F0CEFE01F0FEFEBD4604B080BDC04600366E0180B584B000AF786001235B42FB6001F031FF031C5A1E9341DBB2002B03D001F001FF031C64
:402BC000FB60094B1A68D8239B0013405A1E9341DBB2002B03D0044BD82292001A60FB68181CBD4604B080BDC00F064080B582B000AF78600A1CFB1C1A70FB1C1B78181C5C
:402C000001F026FF0123181CBD4602B080BDC04680B582B000AF78607B68034A1A607B68181CBD4602B080BD2870000080B582B000AF78607B68181CFFF7EAFF7B68034AE1
:402C40001A607B68181CBD4602B080BDF86F000080B582B000AF786039607B68012B07D13A68054B9A4203D1044B181CFFF7DEFFBD4602B080BDC046FFFF0000AC0300203F
:402C800080B500AF034B0120191CFFF7E1FFBD4680BDC046FFFF000080B500AFFEE7C04680B500AF044B0F20191C03F0B9FB034B00221A60BD4680BD052E0000B003002035
:402CC000B0B582B000AF021C3960FB1D1A70FB1D1B787F2B32D93049FB1D1B781A1C0F231340083B98082C4AFB1D1B781C1C0F232340083B9B0806339B00D3185B68FA1DA6
:402D00001278141C03222240D200FF24251C95402A1CD2431A403B689C01FF231C40FB1D1B781D1C03232B40DB00251C9D402B1C1A43831D9B00CB185A6029E0174BFA1D68
:402D4000127852B292081549F81D007840B28008C03080004158F81D0078041C03202040C000FF24251C8540281CC043084039688C01FF210C40F91D09780D1C032129402E
:402D8000C900251C8D40291C0143C0329200D150BD4602B0B0BDC04600ED00E000E100E080B582B000AF78607B685A1E0C4B9A4201D9012310E00B4B7A68013A5A6001239D
:402DC0005B42181C0321FFF77BFF064B00229A60044B07221A600023181CBD4602B080BDFFFFFF0010E000E080B500AFFFF758FF034B181CFFF7D4FF62B6BD4680BDC0461F
:402E0000C05D000080B500AF034B1B685A1C024B1A60BD4680BDC046B003002080B584B000AF786039603B681B68181C0C4903F049FF0B1CFB603B681B68181C084903F0D7
:402E4000FDFE031CBB607B681A68BB68D2187B681A603B68FA681A60BD4604B080BDC04600CA9A3B80B584B000AFF860B9607A603B60FB68BA681A60FB687A685A60FB68D7
:402E80003A681A61FB68181CBD4604B080BDC04690B583B000AF786039607B68DB681B681C687B68D9687B689A683B68081C111C1A1CA047031C181CBD4603B090BDC04629
:402EC00080B584B000AF786039600023FB60FB683A68D3187A689288D2B21A70FB6801333A68D3187A689288120A92B2D2B21A70FB680233FB60FB683A68D3187A68D28824
:402F0000D2B21A70FB6801333A68D3187A68D288120A92B2D2B21A70FB680233FB60FB683A68D3187A681289D2B21A70FB6801333A68D3187A681289120A92B2D2B21A7038
:402F4000FB680233FB60FB683A68D3187A685289D2B21A70FB6801333A68D3187A685289120A92B2D2B21A70FB680233FB60FB683A68D3187A689289D2B21A70FB680133CF
:402F80003A68D3187A689289120A92B2D2B21A70FB680233FB60FB683A68D3187A68D289D2B21A70FB6801333A68D3187A68D289120A92B2D2B21A70FB680233FB60FB68C6
:402FC000181CBD4604B080BD80B584B000AF786039600023FB60FB683A68D3181B781A1C7B689A807B689B889AB2FB6801333968CB181B781B029BB213439BB29AB27B68B0
:403000009A80FB680233FB60FB683A68D3181B781A1C7B68DA807B68DB889AB2FB6801333968CB181B781B029BB213439BB29AB27B68DA80FB680233FB60FB683A68D318D4
:403040001B781A1C7B681A817B681B899AB2FB6801333968CB181B781B029BB213439BB29AB27B681A81FB680233FB60FB683A68D3181B781A1C7B685A817B685B899AB234
:40308000FB6801333968CB181B781B029BB213439BB29AB27B685A81FB680233FB60FB683A68D3181B781A1C7B689A817B689B899AB2FB6801333968CB181B781B029BB236
:4030C00013439BB29AB27B689A81FB680233FB60FB683A68D3181B781A1C7B68DA817B68DB899AB2FB6801333968CB181B781B029BB213439BB29AB27B68DA81FB68023389
:40310000FB60FB68181CBD4604B080BD80B582B000AF7860024B181CBD4602B080BDC0463870000080B582B000AF7860024B181CBD4602B080BDC0464C70000080B582B010
:4031400000AF78607B68181CFEF7DCFF7B68034A1A607B68181CBD4602B080BDA070000080B582B000AF124B1B683B603A680123134017D000237B600CE07B68181C01F09B
:403180007DFE031C191C0B4B7A685200D1527B6801337B607A680221002391425B41DBB2002BEAD1044B3A681A60BD4602B080BD1C021A40DC03002010021A4080B500AF73
:4031C00003F018FB01F038FD01F04AFE024B181C03F050F8BD4680BD6131000080B582B000AF7860044B7A685200D35A9BB21BB2181CBD4602B080BDDC03002080B500AF1B
:40320000074A084B101C191C00F072F8FEF7C6FE021C054B1A60FFF7D1FFBD4680BDC0463C010020C4030020D803002090B585B000AF78600023FB600023BB600AE07B68B9
:40324000181CFFF7CBFF031CFA68D318FB60BB680133BB60BB680322D80FD117041C9A424C41231CDBB2002BE9D1FB68002B01DA0023FB60FB68181CBD4605B090BDC04647
:4032800080B500AFFEF78AFE021C164B1B68D31ADA17D31ADB0FDBB2002B20D0114B1B681A1CFA320F4B1A600020FFF7BFFF031C9AB20D4B9A800120FFF7B8FF031C9AB24F
:4032C000094BDA800220FFF7B1FF031C9AB2064B1A81064A044B101C191CFFF7D9FDBD4680BDC046D8030020B4030020C403002090B585B000AF786039600023FB6019E025
:403300007B68FA686A329200D358002B0FD17B68FA686A3292003968D150FB681A1C6E323B689A607A683B68DA6001230EE0FB680133FB60FB681322D80FD117041C9A42B3
:403340004C41231CDBB2002BDAD10023181CBD4605B090BD80B582B000AF786039607B68012B10D13A68094B9A420CD1084B181CFFF7E4FE0749084A054B081C111C1A1CC4
:403380000023FFF76FFDBD4602B080BDFFFF0000B4030020C40300207070000080B500AF034B0120191CFFF7D5FFBD4680BDC046FFFF000080B584B000AF786039600023B8
:4033C000FB60FB68181CBD4604B080BD80B584B000AF786039600023FB60FB68181CBD4604B080BD80B582B000AF7860024B181CBD4602B080BDC046B070000080B582B067
:4034000000AF7860024B181CBD4602B080BDC046C070000080B582B000AF7860044B1B780122D31ADAB2024B1A70BD4602B080BDE403002080B500AF074B00221A70064BED
:403440001B78181C01F0C8FB044A054B101C191C00F05AF8BD4680BDE40300203C010020E803002080B500AF034B1B78181C01F0B3FBBD4680BDC046E403002080B582B095
:4034800000AF78607B68034A1A607B68181CBD4602B080BD4871000080B582B000AF78607B68181CFEF72EFE7B68034A1A607B68181CBD4602B080BD3071000080B584B036
:4034C00000AFF860B9607A603B60FB68181CFFF7D5FFFB680B4A1A60FB680C33181CFFF7DBFFFB687A681A61FB6800225A61FB683A689A61FB68BA689A60FB68181CBD46E5
:4035000004B080BD1871000090B585B000AF786039600023FB6016E07B68FA687E329200D358002B0CD139687B68FA687E329200D150FB681A1C64323B685A6001230EE062
:40354000FB680133FB60FB680922D80FD117041C9A424C41231CDBB2002BDDD10023181CBD4605B090BDC04680B582B000AF786039607B68012B0CD13A68074B9A4208D150
:403580000649074A074B081C111C1A1C0123FFF795FFBD4602B080BDFFFF0000E8030020E47000001534000080B582B000AF786039607B681A1C0C323B68101C191CFFF774
:4035C00005FF7B681B69002B06D07B681B697A680C32101C984709E07B685B69002B05D07B685B697A680C32101C9847BD4602B080BDC04680B582B000AF78607B689B699E
:40360000181CBD4602B080BD80B582B000AF78607B680C33181CFFF7E5FE031C181CBD4602B080BD80B582B000AF78607B680C33181CFFF7E3FE031C181CBD4602B080BDA2
:4036400080B500AF034B0120191CFFF78DFFBD4680BDC046FFFF000080B584B000AF786039600023FB607B685B68181C03F0CEFB031CBB60FB683A68D2183B1C0833101C78
:40368000191C042203F0B0FBFB680433FB60FB683A68D1187B685A68BB68081C111C1A1C03F0A2FBFA68BB68D318FB60FB68181CBD4604B080BDC04680B586B000AF786001
:4036C000396000233B613B693A68D3183A1C0C32101C191C042203F087FB3B6904333B613B697B610BE07B69013B3A68D31839687A698A1812781A707B6901337B613A6951
:40370000FB68D3187A699A429B415B42DBB2002BE9D13A69FB68D318013B3A68D31800221A703B69013B3A68D2187B685A603A69FB68D3183B613B69181CBD4606B080BDC7
:4037400080B582B000AF7860024B181CBD4602B080BDC0465871000080B582B000AF7860024B181CBD4602B080BDC0466871000080B582B000AF78607B68181CFEF7C2FC21
:403780007B68034A1A607B68181CBD4602B080BDB871000080B500AF064A074B101C191CFFF7A6FDFEF7FAFB021C044B1A60BD4680BDC0463C0100200C04002020040020C5
:4037C00080B500AFFEF7EAFB021C0D4B1B68D31ADA17D31ADB0FDBB2002B0FD0084B1B68FA2189005A18064B1A60064B064A5A60064A044B101C191CFFF74AFBBD4680BD39
:403800002004002004040020D40000200C04002080B582B000AF786039607B68012B10D13A68094B9A420CD1084B181CFFF7A0FF0749084A054B081C111C1A1C0023FFF724
:4038400011FBBD4602B080BDFFFF0000040400200C0400208C71000080B500AF034B0120191CFFF7D5FFBD4680BDC046FFFF000080B584B000AF786039600023FB607B6877
:403880001A793B1C08331A70FB683A68D3183A1C083212781A70FB680133FB60FB68181CBD4604B080BDC04680B584B000AF786039600023FB603B1C083300221A703B1CA6
:4038C00008331A78FB683968CB181B781343DAB23B1C08331A703B1C08331A787B681A71FB680133FB60FB68181CBD4604B080BD80B582B000AF7860024B181CBD4602B050
:4039000080BDC0460072000080B582B000AF7860024B181CBD4602B080BDC0461072000080B582B000AF78607B68181CFEF7EAFB7B68034A1A607B68181CBD4602B080BD57
:403940007072000080B500AF0D4A0E4B101C191CFFF7CEFC0C4B0C4A11680C4A0A408021C9030A431A6001F05DF9031CDBB2DB43DBB2DB09DAB2064B1A70BD4680BDC04687
:403980003C0100202C04002008000440FFFF1FFF4004002080B582B000AF01F043F9031CDAB2FB1DD243D2B2D2091A70214B1B78FA1D12789A4208D0FEF7F0FA031C1A1C02
:4039C0001D4B1A601D4B00221A701C4B1B7801225340DBB2002B0CD0FEF7E0FA031C1A1C154B1B68D21A164B1B689A4201DD012300E00023002B16D0124BFA1D12781A713B
:403A0000114A104B101C191CFFF742FA0B4B01221A70FB1D1B78002B05D00C4A0C4B101C191C00F017F8034BFA1D12781A70BD4602B080BD4004002044040020E800002043
:403A4000E4000020240400202C0400203C0100203472000080B582B000AF786039607A683B68101C01211A1CFFF720F8BD4602B080BDC04680B582B000AF786039607B68A7
:403A8000012B10D13A68094B9A420CD1084B181CFFF746FF0749084A054B081C111C1A1C0023FFF7DFF9BD4602B080BDFFFF0000240400202C0400204472000080B500AFFC
:403AC000034B0120191CFFF7D5FFBD4680BDC046FFFF000080B584B000AF786039600023FB60FB683A68D3187A689288D2B21A70FB6801333A68D3187A689288120A92B293
:403B0000D2B21A70FB680233FB60FB68181CBD4604B080BD80B584B000AF786039600023FB60FB683A68D3181B781A1C7B689A807B689B889AB2FB6801333968CB181B783C
:403B40001B029BB213439BB29AB27B689A80FB680233FB60FB68181CBD4604B080BDC04680B582B000AF7860024B181CBD4602B080BDC0468072000080B582B000AF786024
:403B8000024B181CBD4602B080BDC0469072000080B584B000AF78603B1C0E337A6892881A803B1C0E331A880E4B9A4204D83B1C0E33FA2252001A803B1C0E331A88FA232A
:403BC000DB009A4204D93B1C0E33FA22D2001A803B1C0E331B88181C01F0E8F9BD4604B080BDC046F301000080B500AF044A054B101C191C00F044F801F0B8F9BD4680BDF1
:403C00003C0100204804002080B500AFBD4680BD80B582B000AF78607B68181CFEF772FA7B68034A1A607B68181CBD4602B080BD0073000080B584B000AFF860B9607A60A8
:403C40003B60FB68181CFFF719FCFB680B4A1A60FB680C33181CFFF7DBFFFB687A685A61FB6800229A61FB683A68DA61FB68BA689A60FB68181CBD4604B080BDE87200000B
:403C800090B585B000AF786039600023FB6016E07B68FA687E329200D358002B0CD139687B68FA687E329200D150FB681A1C64323B685A6001230EE0FB680133FB60FB6800
:403CC0000922D80FD117041C9A424C41231CDBB2002BDDD10023181CBD4605B090BDC04680B582B000AF786039607B68012B0CD13A68074B9A4208D10649074A074B081C08
:403D0000111C1A1C0123FFF795FFBD4602B080BDFFFF000048040020B4720000913B000080B582B000AF786039607B681A1C0C323B68101C191CFFF7EDFE7B685B69002B8F
:403D400006D07B685B697A680C32101C984709E07B689B69002B05D07B689B697A680C32101C9847BD4602B080BDC04680B582B000AF78607B68DB69181CBD4602B080BD86
:403D800080B582B000AF78607B680C33181CFFF7E7FE031C181CBD4602B080BD80B582B000AF78607B680C33181CFFF7E5FE031C181CBD4602B080BD80B500AF034B0120EA
:403DC000191CFFF78DFFBD4680BDC046FFFF000080B584B000AF786039600023FB607B685B68BB60FB683A68D318BA68D2B21A70FB6801333A68D318BA68120AD2B21A7070
:403E0000FB6802333A68D318BA68120CD2B21A70FB6803333A68D318BA68120ED2B21A70FB680433FB60FB68181CBD4604B080BD80B584B000AF786039600023FB600023EF
:403E4000BB60BA68FB683968CB181B781343BB60BA68FB6801333968CB181B781B021343BB60BA68FB6802333968CB181B781B041343BB60BA68FB6803333968CB181B7889
:403E80001B061343BB60BA687B685A60FB680433FB60FB68181CBD4604B080BD80B582B000AF7860024B181CBD4602B080BDC0461073000080B582B000AF7860024B181CD8
:403EC000BD4602B080BDC0462073000080B584B000AF786039600023FB607B689A883B1C08331A80FB683A68D3183A1C08321288D2B21A70FB6801333A68D3183A1C083223
:403F00001288120A92B2D2B21A70FB680233FB60FB68181CBD4604B080BDC04680B584B000AF786039600023FB603B1C083300221A803B1C08331A88FB683968CB181B78F2
:403F400013439AB23B1C08331A803B1C08331B889AB2FB6801333968CB181B781B029BB213439BB29AB23B1C08331A803B1C08331A887B689A80FB680233FB60FB68181C04
:403F8000BD4604B080BDC04680B582B000AF7860024B181CBD4602B080BDC0464473000080B582B000AF7860024B181CBD4602B080BDC0465473000080B582B000AF7860CD
:403FC0007B68181CFEF79EF87B68034A1A607B68181CBD4602B080BDD073000080B582B000AF78607B68181CFEF78CF87B68034A1A607B68181CBD4602B080BDB8730000CD
:4040000080B500AF124A134B101C191CFFF770F90F4A114B101C191CFFF76AF9FDF7BEFF021C0E4B1A60FDF7B9FF021C0C4B1A6001F020F801F066F80120082101F038F8B3
:40404000084B00221A80084B00225A60BD4680BD3C010020700400208C040020A0040020A4040020A80400206804002080B582B000AF01F011F8031C9AB2BB1C5204520C37
:404080001A80164BBA1C12889A80BB1C00215A5E134B1B881BB2D31A7B607A688023DB019A4204DD7B680F4A9B187B6008E07A680D4B9A4204DA7B68802109025B187B6094
:4040C0000A4B5A687B68D218084B5A60044BBA1C12881A80BD4602B080BDC04684040020A80400200080FFFF00C0FFFF6804002080B500AFFDF752FF021C194B1B68D31A27
:40410000DA17D31ADB0FDBB2002B0DD0144B1B681A1C0A32124B1A60FFF7A8FF114A124B101C191CFEF7B4FEFDF738FF021C0F4B1B68D31ADA17D31ADB0FDBB2002B0DD02A
:404140000A4B1B681A1CC832084B1A60FFF78EFF074A084B101C191CFEF79AFEBD4680BDA40400208C04002084040020A0040020700400206804002080B582B000AF786023
:4041800039607B68012B1DD13A68104B9A4219D10F4B181CFFF710FF0E490F4A0C4B081C111C1A1C0023FEF75DFE0C4B181CFFF715FF0B490B4A094B081C111C1A1C0023D6
:4041C000FEF750FEBD4602B080BDC046FFFF0000680400207004002078730000840400208C0400208073000080B500AF034B0120191CFFF7C1FFBD4680BDC046FFFF0000AE
:4042000080B582B000AF78607B689A88024B1A80BD4602B080BDC046AC04002080B500AF074A084B101C191C00F06EF8FDF7B6FE021C054B1A60042002F00CF8BD4680BDB3
:404240003C010020B4040020B004002080B500AFFDF7A4FE021C174B1B68D31ADA17D31ADB0FDBB2002B22D0124B1B681A1C0A32104B1A60104B1B881BB2002B09DD062030
:4042800001F0E8FF0C4B1B88013B9AB20A4B1A800DE0094B1B881BB2002B08DA072001F0D9FF054B1B8801339AB2034B1A80BD4680BDC046B0040020AC04002080B584B059
:4042C00000AFF860B9607A603B60FB68181CFFF7D5F8FB680B4A1A60FB680C33181CFFF77DFEFB687A685A61FB6800229A61FB683A68DA61FB68BA689A60FB68181CBD467D
:4043000004B080BD5074000090B585B000AF786039600023FB6016E07B68FA687E329200D358002B0CD139687B68FA687E329200D150FB681A1C64323B685A6001230EE019
:40434000FB680133FB60FB680922D80FD117041C9A424C41231CDBB2002BDDD10023181CBD4605B090BDC04680B582B000AF786039607B68012B0CD13A68074B9A4208D142
:404380000649074A074B081C111C1A1C0123FFF795FFBD4602B080BDFFFF0000B4040020147400000142000080B582B000AF786039607B681A1C0C323B68101C191CFFF76B
:4043C000ADFD7B685B69002B06D07B685B697A680C32101C984709E07B689B69002B05D07B689B697A680C32101C9847BD4602B080BDC04680B582B000AF78607B68DB69AA
:40440000181CBD4602B080BD80B582B000AF78607B680C33181CFFF7B7FD031C181CBD4602B080BD80B582B000AF78607B680C33181CFFF7B5FD031C181CBD4602B080BDF2
:4044400080B500AF034B0120191CFFF78DFFBD4680BDC046FFFF000080B500AF074A084B101C191CFEF744FF00F000FF01F0A4FA044B00221A70BD4680BDC0463C010020B1
:40448000DC040020F004002080B582B000AF01F0BFFB00F079FF031C5A1E9341DBB2002B4CD1002001F070FC021CFB1D511E8A411A70244B1B78FA1D12789A4208D0FDF7BD
:4044C0006DFD031C1A1C204B1A60204B00221A701E4B1B7801225340DBB2002B0CD0FDF75DFD031C1A1C184B1B68D21A184B1B689A4201DD012300E00023002B16D0154B0E
:40450000FA1D12781A71144A124B101C191CFEF7BFFC0E4B01221A70FB1D1B78002B05D00E4A0F4B101C191CFFF794FA054BFA1D12781A7000F0FCFEC04600E0C046BD46E7
:4045400002B080BDF0040020F4040020F0000020EC000020D4040020DC0400203C010020CC74000080B582B000AF786039607B68012B10D13A68094B9A420CD1084B181CC2
:40458000FFF7CEF90749084A054B081C111C1A1C0023FEF767FCBD4602B080BDFFFF0000D4040020DC040020E474000080B500AF034B0120191CFFF7D5FFBD4680BDC04672
:4045C000FFFF000080B582B000AF7860002002F095F8BD4602B080BD80B500AF0A4A0B4B101C191CFEF784FE074A094B101C191CFEF78AFFFDF7D2FC021C064B1A6002F0B7
:4046000051F8BD4680BDC0463C01002000050020140500203005002080B500AFFDF7BEFC021C0E4B1B68D31ADA17D31ADB0FDBB2002B11D0094B1B681A1CC832074B1A602E
:4046400002F068F8031C1A1C054B5A60054A044B101C191CFEF71CFCBD4680BD30050020F80400200005002080B582B000AF786039607B68012B19D13A680E4B9A4215D16A
:404680000D4B181CFFF798FC0C490D4A0A4B081C111C1A1C0023FEF7E5FB0A490A4A0B4B081C111C1A1C0123FEF708FFBD4602B080BDC046FFFF0000F80400200005002089
:4046C00074750000140500207C750000C545000080B500AF034B0120191CFFF7C5FFBD4680BDC046FFFF000080B500AFFEE7C04680B586B000AF254B7B61254B3B61234B68
:404700007B61234B3B6132E03B691B68FB603B695B68BB603B699B683B6000237B600CE0FB681A68BB681A60BB680433BB60FB680433FB607B6804337B607A683B689A420F
:40474000EED13B69DB683B6000237B6008E0BB6800221A60BB680433BB607B6804337B607A683B689A42F2D13B6910333B617B695A1E9341DBB27A69013A7A61002BC3D1CD
:4047800002F00CFBFDF77CFCFEE7C046010000009479000080B582B000AF00237B600FE07B68032B04D8134B7A689200D35800E0114B124A796889008B507B6801337B60DF
:4047C0007B682F2BECD9FCF7C5FC0D4B00221A600C4B1B68002B02D10A4B00221A608023DB058022D205126801210A431A60BD4602B080BD800F0000E94600000000002017
:40480000C8000020C000002080B582B000AF786039607A683B68101C00211A1C02F0EDFABD4602B080BDC04680B586B000AF7860396000233B6100237B612EE07B699B007A
:404840007A68D3181B68BB603B1C0F33BA681A70BB68FF229343BB6017E03B695B003A68D3181B781A1CBB68D3183A69520039688A1852781A703B6901333B613B1C0F3360
:404880003A1C0F321278013A1A703B1C0F331B78002BE2D17B6901337B617B69082BCDD9BD4606B080BDC04680B500AF084B094A1A60094B04221A60084B094A1A60094BEF
:4048C000074A1A60012000F00FF8BD4680BDC0468000104004012400C000104000031A40C000400040031A4080B584B000AF021CFB1D1A700B4B1B68FB60FB1D1B78002BAA
:4049000005D0FB68802212061343FB6003E0FB685B005B08FB60034BFA681A60BD4604B080BDC04680031A4080B584B000AF0A1CBB1D011C19807B1D1A70084B1B681B0C89
:404940001B04FB60BB1D1A88FB681343BB60034BBA681A60BD4604B080BDC0464400024080B500AF00F0BEF8BD4680BD80B500AF054B054A1268802109060A431A6000F0D7
:4049800017F8BD4680BDC0460000064080B500AF064B1B78002B04D1FFF7E2FF034B01221A70FFF7E3FFBD4680BDC0463405002080B500AF0A2001F0D1FDBD4680BDC04638
:4049C00080B582B000AF00237B600E4B1A680E4B1B689A4211D00C4B1B6801333B603B68412B01D100233B60084A3B68D3181B78DBB27B60044B3A681A607B68181CBD4687
:404A000002B080BDEC05002034060020F005002080B582B000AF0C4B1B683B600B4B1B683A689A4205D3094B1B683A68D31A7B6005E0064B1B683A68D31A41337B607B6892
:404A4000181CBD4602B080BDEC0500203406002080B584B000AF78601B4B1B680133FB60FB68802B01D10023FB60C046174B1B68FA689A42FAD0144B1A68144B1B689A424D
:404A800009D1134B1A680F231340082B03D0114B7A681A6015E0104B02221A607B68DAB20E49FB68CB181A70074BFA681A600223BB600B4B1B68BA681343BB60084BBA6826
:404AC0001A60BD4604B080BD64050020680500200802064040020640800F06406C050020880F064080B500AF244B254A1A60254B00221A60244B01221A60244B244A1A606C
:404B0000244B07221A60244B00221A60234B01221A60234B1E4A1A60224B00221A600A2001F032FD0A20032101F0C4FC1E4B0A20191C01F099FC1D4B00221A601C4B0022D0
:404B40001A601C4B00221A601B4B00221A601B4B04221A601A4B00221A601A4B00221A60194B00221A60194B00221A70184B00221A60184B00221A60BD4680BD000006401A
:404B80000F00000240000640480006400003064007000080040306401003064044000640000206400402064019680000880E0640C80E0640480F0640080F0640C80F0640AC
:404BC000880F0640EC0500203406002038060020640500206805002080B584B000AF021CFB1D1A700E4B1B68DAB23B1C0F3340218A431A70FB1D1B789B01DAB240231340DF
:404C0000D9B23B1C0F333A1C0F3212780A431A70034B3A1C0F3212781A60BD4604B080BD0001044080B500AF024B1B68DBB2181CBD4680BD0400044080B500AF064B1B7871
:404C4000002B04D100F00AF8034B01221A7000F0F7F8BD4680BDC0463C05002090B585B000AF0E20032101F025FC5B4B0E20191C01F0FAFB594B07221A60594B594A1A603D
:404C8000594B5A4A1A605A4B5A4A1A605A4B00221A605A4B5A4A1A605A4B594A1A605A4B594A1268802149020A431A60574B574A1268802149020A431A60554B00221A6088
:404CC000544B00221A60544B01221A60534B02221A60534B1B687B607B68012213437B604F4B7A681A600023FB606EE04D4BFA689200D258DC239B0113407B604A4AFB6896
:404D0000D3181B787A6813437B60FB689B00474A9B187A681A60434BFA689200D258012313400AD03A4B3A4A1168FA680120041C9440221C92B20A431A603A4BFA6892008C
:404D4000D258022313400AD0324B324A1168FA680120041C9440221C92B20A431A60314BFA689200D25880239B00134003D080235B00BB6002E080235B01BB60294BFA689C
:404D80009200D25880235B00134005D1284BFA6852000021D15204E0254BFA6852000021D152BB68234A53438022D2009B18002B01DA214C1B19DB129BB219B21F4BFA6894
:404DC0009200D150FB680133FB60FB68022B8DD9BD4605B090BDC046C14E000020001A4000001A40C020001004001A408C00008018001A400000FF071C001A4010001A4078
:404E00000400040014001A4000031A4040031A4028021A4038021A4018021A40000F1A4030001A4098780000A478000080001A403C06002010270000FF0700004406002074
:404E400080B500AF054B054A1268802109060A431A600A2001F0B8FBBD4680BD00001A4080B500AF044B044A1268802149020A431A60BD4680BDC04604001A4080B584B09B
:404E800000AF78607B68022B02D9002001F092FB7B68022B08D87B689B00084A9B181B681B041B0CFB6001E00023FB60FB689BB21BB2181CBD4604B080BDC04680011A4066
:404EC00080B582B000AF044B1B687B60024B7A681A60BD4602B080BD10021A4080B500AF0F4B8022D2041A600D4B0D4A12681A600B4B0B4A12681A600A4B0C221A60002059
:404F000000F080F8084B181C00F042F8074B181C00F04CF8064B31221A60BD4680BDC0464001054064010540204E0000DC0500006801054090B583B000AFFC1D01F069FA79
:404F4000031C2370084B084A126802210A431A60FB1D1B78181C01F060FA0220182100F033F8BD4603B090BD0000054080B500AF064B1B78002B04D1FFF7B0FF034B0122B0
:404F80001A70FFF7D7FFBD4680BDC0463D05002080B582B000AF7860034B7A681204120C1A60BD4602B080BD5401054080B582B000AF7860034B7A681204120C1A60BD46CC
:404FC00002B080BD4C01054090B585B000AF786039603C1C0F3401F01CFA031C2370084B3A687968081C9040021C1A603B1C0F331B78181C01F011FABD4605B090BDC04679
:405000000800054080B582B000AF7860024B7A681A60BD4602B080BD7801054080B500AF064BC82292041A60054BC32292001A60002000F05BF8BD4680BDC046000105407D
:405040002401054090B583B000AFFC1D01F0E1F9031C2370064B064A126801210A431A60FB1D1B78181C01F0D8F9BD4603B090BD0000054080B500AF064B1B78002B04D154
:40508000FFF7CCFF034B01221A70FFF7DBFFBD4680BDC0463E05002080B500AF034B1B681B041B0C181CBD4680BDC0460801054090B585B000AF786039603C1C0F3401F0D2
:4050C000A8F9031C2370084B3A687968081C9040021C1A603B1C0F331B78181C01F09DF9BD4605B090BDC0460800054080B582B000AF7860024B7A681A60BD4602B080BD33
:405100003801054080B500AF044B044A1268802109060A431A60BD4680BDC0468000024080B582B000AF00237B6007E00A4A7B68D31800221A707B6801337B607B68002BAE
:40514000F4D000F00BF8002000F048FB00F038F9BD4602B080BDC0466406002080B582B000AF244B1B68DAB2234B1A70224B1B787B607B680F2293437B60204B1B78DBB2CB
:405180001A1C0F2313407A6813437B607B68F02293437B60194B1B78DBB21A1CF02313407A6813437B60134B7A681A60144B154A1A60154B154A1A60154B1B687B607A687D
:4051C000144B13407B607B68C022D20013437B600F4B7A681A600F2001F0D6F90E4B0F20191C01F041F90F20032101F063F9BD4602B080BD00FF08405006002062F1FF0F1D
:405200000800084000020001040008400008A00110000140FFF0FFFF1D5E000080B582B000AF01F0C5F801F08DF80020002101F095F80020002101F0C7F801F0ABF801F0FE
:4052400073F8084B1B687B607B68074A13437B60044B7A681A600F2001F080F9BD4602B080BDC046040008400010088080B500AF0C4B1B78002B04D1FFF752FF094B012201
:405280001A70FFF7CBFF00F033FE074B01221A70064B064A12688021C9030A431A60BD4680BDC04641050020400500200400084080B584B000AF021CFB1D1A70FB1DFA1DD1
:4052C000127801321A70FB1D1B78012B0CD0FB1D1B78094A101C191C00F098FA031CFB60FB68002BEAD000E0C046FB1D1B78181CBD4604B080BDC046F800002080B582B0D3
:4053000000AF7860084B00221A707B68DAB2074B1A70054B81221A707B68181C00F05CF9BD4602B080BDC046420500204305002080B500AF124B00221A70124BFF221A7007
:40534000104B1B78DBB2181CFFF7B2FF031C1A1C0C4B1A700B4B1B78DBB2002B0DD1084B1B78DBB201221343DAB2054B1A70054B1B78DBB2181C00F02FF9BD4680BDC046CE
:40538000420500204305002080B500AF044B1B78DBB21A1C01231340181CBD4680BDC0464205002080B582B000AF7860034B7A685200D35A181CBD4602B080BD4405002011
:4053C00080B582B000AF00237B6006E07B68181C00F070F87B6801337B607B68002BF5D0BD4602B080BDC04690B587B000AF78602C4A7B68D3181B787B612B4A7B68D3188E
:405400001B783A1C1332191C4900CB181370264A7B68D3181A783B1C123392001A703C1C113400F0F6FF031C2370204B7A699200D3581B68FB603B1C12331B780F22111C28
:4054400099400B1CDA43FB681340FB603B1C12331B780422141C9C40231CFA681343FB60134B7A699200D358114A796989008A581268391C133109780720041C8C40211CC1
:40548000C9430A401A60094B7A699200D358FA681A603B1C11331B78181C00F0BEFFBD4607B090BDA8780000B0780000B8780000CC78000090B589B000AF7860404A7B6808
:4054C000D3181B787B613F4A7B68D3181A783B1C133392001A703B4A7B68D3181B783A1C1232191C4900CB1813700023FB61364A7B68D3181B78BB61344B7A699200D358B1
:40550000324A796989008A581268391C133109780F20041C8C40211CC9430A401A60BB69022B01D10023BB61BB69022B45D0BB69012B01D00623FB613C1C113400F069FF83
:40554000031C2370224B7A699200D3581B68FB603B1C12331B780722111C99400B1CDA43FB681340FB603B1C12331B78FA69141C9C40231CFA681343FB60154B7A69920016
:40558000D358FA681A603B1C11331B78181C00F044FF104B7A699200D3580E4A796989008A58126807487968411809780120041C8C40211CC9430A401A60BD4609B090BD08
:4055C000A8780000B078000064060020B8780000CC780000E078000090B589B000AF78603B1C1B333D497A688A1812781A703B1C1B331A783A4B9200D358FB61394A7B680A
:40560000101C191C00F002F9031C7B61FA69364B9A420AD87B69FA69111C99400B1CFB61FB69FF2212041343FB61304A7B68D3181B78013B9BB2181C002100F08FFE2C4AB8
:405640007B68D3181B78013B9BB2181C002100F0BBFE0F2000F098FF264B1B683B613A69254B13403B61254A7B68D3181B781A1C23497B68CB181B781B0413433A691343C1
:405680003B611C4B3A691A601E4B1B683B613A691D4B13403B613B691C4A13433B610F2000F05CFF7B68181CFFF79EFE3C1C0F3400F0AFFE031C2370124B3A691A606F2036
:4056C00000F09EFE124BFA691A603B1C0F331B78181C00F0A2FEBD4609B090BDB47800000001002090060020FFFFFEFF68060020580600200800084000FF80FF5C06002091
:405700006006002004000840FF1FDFFF200020000C00084080B586B000AF7860254B1B6899B2254B7A685200D152244A7B68D3181B787B61224B7A699200D258214B9A4211
:4057400015D8214A7B68101C191C00F05FF8031C3B61194B7A685200D35A1A1C3B69111C19410B1C99B2144B7A685200D1527B68181CFFF79FFE0F2000F006FF134B1B688E
:40578000FB60FA68124B1340FB60FB68A02212021343FB600D4BFA681A600E4B0D4A11680D4A0A401A600F2000F0D8FEBD4606B080BDC0460C00084044050020B4780000E5
:4057C00000010020FFFFFEFF9006002004000840FF1FDFFF0800084000FF80FF80B584B000AF78607A68032313407B60064B1B68FB607B685B02FA681343FB60024BFA686A
:405800001A60BD4604B080BD0400084080B584B000AF786039603B68DB08FB603A680723134001229A403B1C0B331A707A68FB68D3181B783A1C0B3212781340DBB2002B1E
:4058400001D0012300E00023181CBD4604B080BD80B586B000AFF860B9607A60BB68DB087B61BA680723134001229A403B1C13331A707B68002B0DD0FA687B69D318F96881
:405880007A698A1811783A1C133212780A43D2B21A700EE0FA687B69D318F9687A698A181278391C13310978C943C9B20A40D2B21A70BD4606B080BD80B584B000AF7860EC
:4058C0000023BB600023FB6014E07B68181CFFF715FDC046FFF758FD031C012BFAD07B68181CFFF75FFD031CBA68D318BB60FB680133FB60FB68002BE7D0BB689BB2181CE8
:40590000BD4604B080BDC04680B584B000AF78603B1C0F3315497A688A1812781A70144B7A685200D15A134B7A685200D152124A7B68D31800221A70104A7B68D31800225B
:405940001A703B1C0F331B783A1C0F3212780C49895C0C4AD154064B7A685200D15A0A4B7A685200D152BD4604B080BDB478000044050020480500204C0500205005002063
:4059800008010020580500207806002080B582B000AF78607B68181CFFF7B0FCC046FFF7F3FC031C002BFAD17B68181CFFF7ACFFBD4602B080BDC04680B582B000AF002313
:4059C0007B6006E07B68181CFFF7E0FF7B6801337B607B68002BF5D0BD4602B080BDC04690B587B000AF78603B1C113376497A688A1812781A703B1C11331A783B1C103381
:405A000072498A5C1A703B1C0E33714A796849008A5A1A806F4B7A685200D35A3C1C0E343A1C0E321288101C191C00F0D9F9031C2380684B7A685200391C0E310988D15247
:405A40007B68DAB26449624B081C111C1A1C01F047F8624B7A685200D35A3A1C0E3212889A4212D35E4A7B68D31800221A705B4B7A685200D25A3B1C1233391C0E310988BE
:405A80008A1A1A8001237B610CE0544B7A685200D15A3B1C12333A1C0E3212888A1A1A8000237B617B69002B24D13B1C11331B784C4AD35C3A1C123212889A421AD9484A29
:405AC0007B68D3181B78042B09D97B68181CFFF71BFF434A7B68D31800221A704CE0404A7B68D3181B780133DAB23D497B68CB181A7041E03B1C10331B789BB23A1C123224
:405B000012889A420CD93B1C11331B78354AD35C3A1C123212889A422ED27B69002B2BD12E4B7A685200D35A1B02BB602E4A7B68D3181B78BA681343BB603B1C0E331B885A
:405B4000BA68D318BB60254B7A685200D35ABA68D31ABB60BB681B0A99B2204B7A685200D152BB68DAB220497B68CB181A701C4A7B68D31800221A703B1C10331B789BB2EB
:405B80003A1C123212889A4216D97B69002B13D03B1C12331B88FF2B05D9144A7B68D318FF221A700DE03B1C12331B88DAB20F497B68CB181A7004E00C4A7B68D31800224C
:405BC0001A70BD4607B090BDB47800006C06002044050020780600209C0600204805002070060020740600204C0500205005002080B582B000AF78607B68181C00F0FAF922
:405C00007B68181CFFF7ECFEBD4602B080BDC04680B582B000AF00237B6011E00B4A7B68101C191CFFF7F2FD031C3B603B68002B03D07B68181CFFF7DBFF7B6801337B60BE
:405C40007B68002BEAD0BD4602B080BDF800002080B584B000AF78603B1C0F3343497A688A1812781A703B1C0F331A783B1C0E333F498A5C1A703B1C0F331A783B1C0D3328
:405C80003C498A5C1A703B1C0F331A783B1C0C3339498A5C1A703B1C0B333A1C0F3212781A70364A7B68101C191CFFF7AFFD031C002B1DD0324A7B68D3181B781A1C3B1CF5
:405CC0000E3319783B1C0D331B78CB1A9A423DDA2A4A7B68101C191C0022FFF7B9FD3B1C0B331B78274A391C0C310978D1542DE0234A7B68D3181B781A1C3B1C0E3319783F
:405D00003B1C0D331B78CB189A4217DB3B1C0B331B781C4AD25C013AD1B21A4AD1543B1C0B331B78174AD35C002B0FD1134A7B68101C191C0122FFF78BFD07E03B1C0B3304
:405D40001B78104A391C0C310978D1540B4A7B68101C191CFFF75AFD031C002B01D0012300E00023181CBD4604B080BDB4780000800600207C060020080100205405002098
:405D8000500500205805002080B586B000AF7860114A7B68D3181B787B61104A7B68D3181B781A1C7B69D318FB6000233B617B69181CFFF74DFF031C002B01D001233B6158
:405DC0007B6901337B617A69FB689A42EFD33B69181CBD4606B080BDF4780000F878000080B584B000AF0A1CBB1D011C19803B1D1A80BB1D1A883B1D1B88D318FB603B1D50
:405E00001B885B00FA68D318FB60FB689B08FB60FB689BB2181CBD4604B080BD80B500AF0F2000F0B1FB2C4B01221A602B4B1B78DBB2181CFFF76EFC294B1B78DBB2DBB275
:405E40005BB2002B08DA264B1B78DBB201229343DAB2234B1A703AE0204B1B78DBB2181CFFF726FA031C1A1C1C4B1A701B4B1B78DBB2002B06D1194B1B78DBB2181CFFF78F
:405E8000ABFB24E0164B1B78DBB201229343DAB2134B1A70124B1B78DBB21A1C4023134015D0104B00221A700DE00E4B1B780D4A12780D49895C0D4AD1540A4B1B78013368
:405EC000DAB2084B1A70074B1B78002BEDD00F2000F044FBBD4680BD1400084043050020420500205C05002054060020F800002080B582B000AF364B01221A70344B0122AA
:405F00005A70334B01229A70314B1822DA80304B304A9A802E4B304A9A6000F02FF900233B6007E02D4B3A6892002D49D1503B6801333B60264B5B781A1C3B689A42F1D8AC
:405F400000237B600CE0274A7B68D31804221A70254A7B68D31802221A707B6801337B607B68002BEFD000F015F9194A1F4B101C191C00F0FFFC1E4B0120191C00F0B0F830
:405F8000134B181C00F008FD114A184B101C191C00F0F0FC164B0120191C00F0A1F80C4B181C00F01DFD0A4B181C00F00DF900237B6006E07B68181C00F01CF87B680133F5
:405FC0007B607B68002BF5D0BD4602B080BDC0469C060020CC0400000C790000000100200000FF0F58060020680600209A0D00005C06002090B587B002AF7860314A7B681D
:40600000D3181B78FB607B68D9B2FB68DBB22E482E4A2F4C00942F4C019400F0EDFD3B1C0B332B49FA688A1812781A70294AFB68D3181A782849FB68CB181A703B1C0B33F8
:406040001B78DB2B09D83B1C0B331B78DB08DAB22249FB68CB181A7031E03B1C0B331B78EC2B09D83B1C0B331B781B09DAB21B49FB68CB181A7022E03B1C0B331B78F42B4E
:4060800009D83B1C0B331B785B09DAB21349FB68CB181A7013E03B1C0B331B78F92B09D83B1C0B331B789B09DAB20C49FB68CB181A7004E0094AFB68D31800221A70BD46EA
:4060C00005B090BDB47800009C06002044050020800600206C060020740600207C06002080B588B000AF786039600023FB613AE000237B611F4AFB69D3181B783B611E4A5F
:40610000FB69D3181B78BB61BA693B69D318FB600FE03A68BB69D3181B781A1C7B699A4204D93A68BB69D3181B787B61BB690133BB61BA69FB689A42EBD30F4AFB69D318F2
:406140001B78BB6108E03A68BB69D3187A69D2B21A70BB690133BB61BA69FB689A42F2D3FB690133FB61FA697B689A42C0D3BD4608B080BDF8780000F478000080B500AFEA
:40618000034B034A126840218A431A60BD4680BD0400084080B582B000AF094B1B687B607A68084B13407B607B688022920013437B60034B7A681A60BD4602B080BDC04681
:4061C00008000840FFFCFFFC80B584B000AF78600023FB6017E01A4AFB68D3181B785B08DAB21849FB68CB181A70154AFB68D3181B7801335B08DAB21149FB68CB181A7002
:40620000FB680133FB607B681B781A1CFB689A42E1D80F2000F0B8F90B4B1B68BB60BA680A4B1340BB60BB68094A1343BB60064BBA681A600F2000F091F9BD4604B080BDAE
:406240005C0600206006002008000840FFFCFFFC0002000180B582B000AF021CFB1D1A70034BFA1D12781A70BD4602B080BDC04673000F4080B582B000AF786000F04AF8A4
:406280007B68181C00F008F8032000F011F800F037F8BD4602B080BD80B582B000AF7860024B7A689A67BD4602B080BD0000002090B585B000AF021CFB1D1A701623FB60FD
:4062C0003C1C0B3400F0A5F8031C23700A4B0A4A11680A4A1140FA1D1078FA68041C9440221C0A431A603B1C0B331B78181C00F094F8BD4605B090BD0CE400E0FFFF3FFF1E
:4063000080B500AF024B8022D2011A60BD4680BD00E100E080B500AF024B8022D2011A60BD4680BD80E100E080B500AF044B044A1268802109060A431A60BD4680BDC046E3
:406340000000024080B500AF034B034A1268520052081A60BD4680BD0000024080B584B000AF0A1CBB1D011C19807B1D1A70084B1B681B0C1B04FB60BB1D1A88FB681343A2
:40638000BB60034BBA681A60BD4604B080BDC0460000024080B500AF044B044A1268802109060A431A60BD4680BDC0464000024080B500AF034B034A1268520052081A6043
:4063C000BD4680BD4000024080B584B000AF0A1CBB1D011C19807B1D1A70084B1B681B0C1B04FB60BB1D1A88FB681343BB60034BBA681A60BD4604B080BDC04640000240C2
:406400000230800804D0C0460138FDD1C046C0467047EFF3108072B6704780F31088704780B584B000AF021C3960FB1D1A7080239B05FB60FB1D1B780F2B02D9002000F00C
:40644000B9F8FB1D1B789B00FA68D3181B68BB60FB1D1B789B00FA68D3183A681A60BB68181CBD4604B080BD80B584B000AF021C3960FB1D1A7080239B05FB60FB1D1B7886
:406480001F2B02D9002000F095F8FB1D1B7810339B00FA68D3181B68BB60FB1D1B7810339B00FA68D3183A681A60BB68181CBD4604B080BD90B587B000AF0A1CFB1D011CE3
:4064C0001970BB1D1A70BB1D1B78032B02D9002000F070F8FB1D1B781F2B02D9002000F069F8FB1D1A7803231340DB0006337B613C1C1334FFF78DFF031C2370FB1D1B78F3
:406500009B08DBB29B0014495B181B68FB607B690322111C99400B1CDA43FB681340FB60BB1D1A787B69111C99400B1CFA681343FB60FB1D1B789B08DBB29B00064A9B1877
:40654000FA681A603B1C13331B78181CFFF765FFBD4607B090BDC04600E400E080B582B000AF021CFB1D1A70064BFA1D11781F220A400121081C9040021C1A60BD4602B0FB
:4065800080BDC04600E100E080B582B000AF021CFB1D1A70064BFA1D11781F220A400121081C9040021C1A60BD4602B080BDC04680E100E080B582B000AF021CFB1D1A70C8
:4065C00001BEBD4602B080BD80B582B000AF021CBB1D1A80BB1D1B88044A12785343181CFFF70EFFBD4602B080BDC0461801002090B583B000AF214B1B78DAB2FB1D072101
:406600008A431A701D4BFA1D127801210A43D2B21A701A4B1B78DAB2FB1D03218A431A70164BFA1D12781A7000F0A4F802235B42181C00F087F802235B42181C00F05EF8AD
:40664000002000F041F800F04FF8802000F086F8BC1DFFF7DEFE031C2370094B084A1278D2B210210A43D2B21A70BB1D1B78181CFFF7D3FEBD4603B090BDC04670000F40C1
:4066800093000F4080B500AF054B054A1278D2B2802149420A43D2B21A70BD4680BDC04670000F4080B500AF064B1B78002B04D1FFF79EFF034B01221A70FFF7E3FFBD46AA
:4066C00080BDC0465D05002080B582B000AF021CFB1D1A70034BFA1D12781A70BD4602B080BDC04683000F4080B500AF024B1B78DBB2181CBD4680BD63000F4080B582B0DE
:4067000000AF7860024B7A681A60BD4602B080BD00200F4080B500AF034B1B78034B1B68181CBD4680BDC04600000F4000210F4080B500AF024B1B68181CBD4680BDC046CB
:4067400000210F4080B582B000AF7860024B7A681A60BD4602B080BD80200F4080B582B000AF7860024B7A681A60BD4602B080BDC0200F4080B500AF01E0FFF7D9FFFFF7F0
:40678000B3FF031C1A1C40231340F6D1BD4680BD80B500AF0A4B0A4A1268802109060A431A60084B00221A60074B03221A60054B044A126804210A431A60BD4680BDC0466D
:4067C0000000104004001040080F104080B500AF064B064A126803218A431A60034B034A126803490A431A60BD4680BD040010400208000080B500AF064B1B68002B04D1A6
:40680000044B01221A60FFF7C3FFFFF7DFFFBD4680BDC0466005002080B584B000AF334B1B68002B02D0314B1B689847304B1A680423134026D01DE02E4B1B687B602E4B67
:406840001B680133FB60FB68412B01D10023FB602A4B1B68FA689A4203D1294B20221A7008E07B68DAB22749FB68CB181A70224BFA681A60244B1A680F231340DCD1234B2C
:4068800004221A60224B1A68022313402AD020E0204B1A68204B1B689A4213D01E4B1B680133BB60BB68802B01D10023BB601B4B1B49BA688A181278D2B21A60164BBA688B
:4068C0001A6006E0174B174A126802218A431A6005E0154B1A680F231340082BD8D1134B02221A60BD4604B080BDC04638050020CC0F064040030640EC0500203406002001
:4069000038060020F005002008030640C00F06408C0F06406405002068050020400206406C050020880F064008020640800F0640F7B59C180023071C0191009223700826E1
:406940008025207828432070B96800984A6A9047019B984202D22078A8432070013E6D08002EEED12178CFB2F82F01D9082671422170F7BD70B5051C0E1C00242B789C4247
:4069800008D2A868221C0368311C281CFFF7D0FF0134F3E770BD000038B5051C00242B789C4218D2AA681168085DC3080F2B00D90F230949D268C85C1055AA680748042B70
:4069C00003D9536B211C012202E0536B211C002298470134E3E738BDFC78000090060020F0B5051C89B000266B789E4265D2AC68206A815D0291002901D101220292E76971
:406A00002978BB5D00930098884201D30136EBE7A268009F0F21D35DA4690B402849B000049300227B00225003905818254C0590254819191B18069107933C1C0192009F0D
:406A4000029AD1198C42E1D2AF68AB88FA68E888115D584300F040F93968095D00F0EEF8049B1A49584340005A2802D949084008FAE7BF690A0C039913047B50144F154BB1
:406A80008208385514491A55144AC0080F27085517550199012305985A424252069A0798002353524352A9688B681A191078013407401770019A0232C0E709B0F0BDC04603
:406AC0008C060020A8060020940600200000FFFF98060020AC0600208806002084060020F0B53E4F4B00DC5B9A5A89B0DA53161B3B4F02967D5C9C466C003A4D0594674621
:406B00007C5B394E394F735C03946646F55B8768374C0495BD68665C6C5C029D0696059EEF0F0794F4190F273C40EE170194AC1974409C4203D2012B05D0013B00E0013306
:406B4000FF263F2B00D89E00274D019F6B540F2F29D0002F24D0B44225D8079C039D26090596141EAC4200D92C1C049FBA4200D23A1C059E09250027B5427F41F5190A2DE7
:406B800013D1171B0397039E5F1CB34205D9069FBE089E42BF417E429F1B164B5F5404E0141C019D01E0141C00256E4637790C4B66465F540B4F0F23BC530C4C2D01A25345
:406BC000826897687E183478234033708068826851180F783D430D7009B0F0BD94060020840600208C06002088060020A806002098060020AC06002010B50E480E4A525CFC
:406C0000415CFF203F2901D88C00E0B24CB2002C02DB4C00E1B200E0FF21824202D95008C1B200E0021C01240298A243C254039AD15410BDAC06002098060020002934D0E5
:406C40000123002210B488422CD301242407A14204D2814202D209011B01F8E7E400A14204D2814202D249005B00F8E7884201D3401A1A434C08A04202D3001B5C082243A1
:406C80008C08A04202D3001B9C082243CC08A04202D3001BDC082243002803D01B0901D00909E3E7101C10BC7047002801D00020C04307B4024802A14018029003BDC04687
:406CC000D90000000029F0D003B5FFF7B9FF0EBC4243891A1847C046002941D010B4041C4C40A44601230022002900D54942002800D5404288422CD301242407A14204D261
:406D0000814202D209011B01F8E7E400A14204D2814202D249005B00F8E7884201D3401A1A434C08A04202D3001B5C0822438C08A04202D3001B9C082243CC08A04202D3C2
:406D4000001BDC082243002803D01B0901D00909E3E7101C6446002C00D5404210BC7047002806D003DB0020C043400801E08020000607B4024802A14018029003BDC046E1
:406D8000190000000029EBD003B5FFF7A7FF0EBC4243891A1847C0467047C04670B50E4B0E4D0024E81A85101E1CAC4204D0A100725890470134F8E700F0C4FD0849094A33
:406DC0000E1C541AA5100024AC4204D0A300F05880470134F8E770BD5079000050790000507900008479000010B50023934203D0CC5CC4540133F9E710BD00B58218031CF6
:406E0000934202D019700133FAE700BD0023C25C0133002AFBD1581E70470000000000007374645F6D7367732F54696D650000006364373136366337346335353263333167
:406E40003166626363326665356137626332383900000000726F7373657269616C5F6D7367732F546F706963496E666F0000000036336161356538663162646436663335B8
:406E80006336396665316131623964323865396600000000726F7373657269616C5F6D7367732F4C6F670000313161626437333163323539333332363163643631383362A6
:406EC0006431326436323935000000003966306539386264613635393831393836646466353361666137613430653439000000004D6573736167652066726F6D206465768D
:406F00006963652064726F707065643A206D657373616765206C6172676572207468616E206275666665722E00000000726F7373657269616C5F6D7367732F526571756585
:406F40007374506172616D000000000000000000B5280000CD210000252B0000000000000000000000000000992C0000992C0000992C0000000000000000000000000000CF
:406F8000151A0000851C0000591F0000711F00000000000000000000D918000049190000E5190000FD19000000000000000000005D150000B9160000A9180000C1180000B7
:406FC0000000000000000000BD130000691400002D150000451500000000000000000000992C0000992C0000992C0000992C00000000000000000000552B00009D2B00004C
:40700000ED2B0000726F7373657269616C5F6D7367732F52657175657374506172616D000000000000000000992C0000992C0000992C000000000000726F7373657269618B
:407040006C5F70736F63342F4164630036643738353361363134653265383231333139303638333131663261663235620000000061646300FA000000726F7373657269619F
:407080006C5F6D7367732F52657175657374506172616D00000000000000000000000000C12E0000C92F00000D310000253100007374645F6D7367732F456D707479000025
:4070C000643431643863643938663030623230346539383030393938656366383432376500000000746F67676C655F6C65640000726F7373657269616C5F6D7367732F5269
:40710000657175657374506172616D00000000000000000000000000A9350000F535000009360000253600000000000000000000B5330000CD330000E5330000FD330000F5
:407140000000000000000000992C0000992C0000992C0000992C00007374645F6D7367732F537472696E6700393932636538613136383763656338633862643838336563E7
:407180003733636134316431000000006368617474657200726F7373657269616C5F6D7367732F52657175657374506172616D00000000000000000059360000B936000048
:4071C0004137000059370000726F7373657269616C5F6D7367732F4C6F67000031316162643733316332353933333236316364363138336264313264363239350000000027
:407200007374645F6D7367732F426F6F6C000000386239346331623533646236316662366165643430363032386164363333326100000000627574746F6E2070757368656C
